:04000000C7EF0DF049
:100800000057656C636F6D650049443A00255800D8
:0108100000E7
:10081200000165BF0FEF04F011EF04F012EF04F0D6
:10082200669365BF1FEF04F0655106E16405D8B019
:100832001DEF04F01FEF04F025EF04F0000E306E00
:10084200010E2F6E29EF04F064C02FF065C030F066
:1008520062C031F063C032F066A932EF04F034EFC7
:1008620004F038EF04F0FE0E3126FF0E32221EC0D5
:1008720033F01FC034F020C035F021C036F022C062
:1008820037F023C038F024C039F025C03AF0000E0A
:100892003C6E1F0E3B6E000E896FE9EF04F03B06C3
:1008A200D8A03C060F0E33143D6E3E6A3EBE63EF87
:1008B20004F03E5009E10A0E3D5CD8A063EF04F05B
:1008C20065EF04F06DEF04F0570E3D243D6E000E0F
:1008D2003E203E6E73EF04F0300E3D243D6E000E5E
:1008E2003E203E6EBF0E276EFF0E286E2650296EEA
:1008F2002A6A2750292628502A222A5007E11A0E4E
:10090200295CD8B087EF04F089EF04F0ACEF04F073
:100912009F0E276EFF0E286E200E3D10296E000ED0
:100922003E102A6E2750292628502A222A5007E1F3
:100932001A0E295CD8B0A0EF04F0A2EF04F0ACEFDD
:1009420004F03DC007F03EC008F0DAEC0CF007C03E
:100952003DF008C03EF06A0E3B24D96E000E3C20EA
:10096200DA6E3DC0DFFF2F06D8A030063106D8A0D0
:10097200320633C027F034C028F035C029F036C023
:100982002AF037C02BF038C02CF039C02DF03AC015
:100992002EF0050ED6EF04F0D8902E322D322C32E6
:1009A2002B322A32293228322732E82ECDEF04F0B8
:1009B20027C033F028C034F029C035F02AC036F001
:1009C2002BC037F02CC038F02DC039F02EC03AF0D1
:1009D2003CBEF5EF04F03C5009E1020E3B5CD8A0AE
:1009E200F5EF04F0F7EF04F028EF05F03350341080
:1009F200351036103710381039103A10D8A404EFD9
:100A020005F006EF05F050EF04F030BE13EF05F0ED
:100A1200305006E12F04D8B011EF05F013EF05F0C6
:100A220050EF04F032BE1EEF05F0325008E13104FF
:100A3200D8A01EEF05F020EF05F028EF05F0000129
:100A420066B326EF05F028EF05F050EF04F0000141
:100A520066A92EEF05F030EF05F046EF05F03B06F4
:100A6200D8A03C066A0E3B24D96E000E3C20DA6EFA
:100A720026C0DFFF3B06D8A03C066A0E3B24D96E97
:100A8200000E3C20DA6E300EDF6E1CC011F01DC06D
:100A920012F06A0E3B24136E000E3C20146E31C01D
:100AA20015F032C016F00BEC09F011C01CF012C0A8
:100AB2001DF012001C6E020E196E000E1B6E000E4F
:100AC200186E70EF05F0120E1B6E100E186E85EF89
:100AD20005F0770E1B6E300E186E85EF05F01C5078
:100AE200146E156A1550000AD8B47AEF05F085EF36
:100AF20005F014500C0AD8B46AEF05F0020AD8B413
:100B020064EF05F085EF05F01B508009016E020EBF
:100B120021EC0BF0800E0A6E040E53EC0EF0800EE8
:100B22000A6E0A0E60EC0EF0000E016E010E21EC50
:100B32000BF0000E1E6E000E1D6EADEF05F01D5087
:100B42000D24D96E1E500E20DA6EDF50016E090E92
:100B520021EC0BF01D4A1E2A0F50146E156A145018
:100B62001D5C15501E58D8A0B9EF05F0BBEF05F07B
:100B7200A0EF05F01CC001F0010E21EC0BF00C0EF1
:100B82001C18D8A4C7EF05F0C9EF05F0CEEF05F0A9
:100B9200800E0A6E0D0E60EC0EF01D681E68040ECB
:100BA2006EEC09F01F6E1D06D8A01E061D501E1009
:100BB200D8B4DEEF05F0E0EF05F0F1EF05F01FB07D
:100BC200E5EF05F0E7EF05F0F1EF05F01F5018141F
:100BD2000009D8B4EFEF05F0F1EF05F0D0EF05F022
:100BE200800E0A6E0D0E53EC0EF01D501E10D8B47E
:100BF200FDEF05F0FFEF05F0A0EF06F0060E6EEC3C
:100C020009F0146E1B0E1416D8A40AEF06F00CEFAE
:100C120006F09EEF06F0000E196E1F501B14146EA4
:100C220014A016EF06F018EF06F01AEF06F0010E08
:100C3200196E0C0E1C18D8A421EF06F023EF06F053
:100C4200A0EF06F00A0E6EEC09F01F6E0C0E6EECB1
:100C520009F0070B1A6E1A50D8B432EF06F034EFCF
:100C620006F056EF06F0F80E146EFF0E156E1A50CF
:100C72001FC016F0176AD89016361736D890163657
:100C82001736D890163617361626000E172214502D
:100C920016261550172212C0D9FF13C0DAFF16C04C
:100CA200DEFF17C0DDFF60EF06F01F50080D12C017
:100CB200D9FF13C0DAFFF3CFDEFFF4CFDDFF1F5001
:100CC200D8A466EF06F068EF06F06AEF06F0010EB0
:100CD2001F6E100E1F6470EF06F072EF06F074EFD5
:100CE20006F0100E1F6E000E1E6E000E1D6E86EFB9
:100CF20006F01D501024D96E1E501120DA6E090E16
:100D02006EEC09F0DF6E1D4A1E2A1F50146E156A22
:100D120014501D5C15501E58D8A092EF06F094EFA7
:100D220006F07AEF06F01D501024D96E1E501120E5
:100D3200DA6E000EDF6EA0EF06F0020E196E195089
:100D4200120041C0D9FF42C0DAFFDECFF6FFDDCF8D
:100D5200F7FF0800F550250AD8A4B2EF06F0B4EF69
:100D620006F06EEF07F041C0D9FF42C0DAFFDE2A7B
:100D7200000EDD22000E0001636F000E626F62C082
:100D820066F063C067F06469656941C0D9FF42C01B
:100D9200DAFFDECFF6FFDDCFF7FF0800F550780A65
:100DA200D8B4D6EF06F0D8EF06F0EAEF06F041C06D
:100DB200D9FF42C0DAFFDECFF6FFDDCFF7FF080032
:100DC200F550580AD8A4E8EF06F0EAEF06F038EF3B
:100DD20007F041C0D9FF42C0DAFFDECFF6FFDDCF18
:100DE200F7FF0800F5CF51F041C0D9FF42C0DAFF4A
:100DF200DE2A000EDD2243C0D9FF44C0DAFFDFCF76
:100E020045F0020EDE26DFCF46F0000EDD2245C0A1
:100E1200D9FF46C0DAFFDECF47F0DDCF48F047C04A
:100E220049F048C04AF04B6A4C6A4D6A4E6A4F6AB2
:100E3200506A3FC01CF040C01DF049C01EF04AC0BD
:100E42001FF04BC020F04CC021F04DC022F04EC02C
:100E520023F04FC024F050C025F051C026F009EC19
:100E620004F01CC03FF01DC040F089EF07F041C004
:100E7200D9FF42C0DAFFDECFF6FFDDCFF7FF080071
:100E8200F550250AD8A448EF07F04AEF07F061EFC2
:100E920007F041C0D9FF42C0DAFFDE2A000EDD2290
:100EA200000E026E250E016E3FC003F040C004F03A
:100EB200A6EC08F0000E406E010E3F6E89EF07F0BF
:100EC20041C0D9FF42C0DAFFDE2A000EDD22000E49
:100ED200406E000E3F6E89EF07F041C0D9FF42C05D
:100EE200DAFFDECFF6FFDDCFF7FF0800F550016E27
:100EF200026A3FC003F040C004F0A6EC08F041C013
:100F0200D9FF42C0DAFFDE2A000EDD225BEF07F0D6
:100F120012007BEC0EF0A00E0E6E860E0F6E010E0E
:100F2200106E000E116E5FEC0CF04E0E2FEC08F0FE
:100F320005EC0CF0120E0001B96F200EB86F0F0E07
:100F4200E82EFED7B82FFCD7B92FFAD700D0010E62
:100F5200076E010E6BEC0BF0010E056E080E066EAD
:100F6200CAEC09F08A8E450E0001B96F7D0EB86F8A
:100F7200470EE82EFED7B82FFCD7B92FFAD700D0EC
:100F8200010EB4EC0CF08A9E010E076E010E6BECA2
:100F92000BF0090E056E080E066ECAEC09F0AA0ED9
:100FA200266E000E276E08EC0EF00009D8B4DCEFB6
:100FB20007F0DEEF07F0D0EF07F08A0E286E000E82
:100FC200296E74EC0DF00009D8B4EAEF07F0ECEFEB
:100FD20007F0DEEF07F0020E076E010E6BEC0BF06E
:100FE200000E0001BA6F9A0E5A6E000E5B6E0D0E65
:100FF2005C6E080E5D6E8A0EBA25D96EDA6A000E34
:10100200DA22DF50B86FB8515E6E5F6A8BEC0CF07B
:101012000001BA2B030EBA6511EF08F013EF08F0C6
:10102200F4EF07F09A0E056E000E066ECAEC09F098
:10103200230E0001B96F3F0EB86F220EE82EFED7C5
:10104200B82FFCD7B92FFAD700F033EC0CF0010E11
:10105200B4EC0CF0C5EF07F000EF00F0096E09C028
:10106200BBF0000E44EC0EF0020E086E5F0E076E2F
:10107200A30EE82EFED7072EFCD7082EFAD700F0D3
:10108200030EB4EC0CF02C0E076ED40EE82EFED735
:10109200072EFCD7030EB4EC0CF02C0E076ED40E08
:1010A200E82EFED7072EFCD7030EB4EC0CF02C0E64
:1010B200076ED40EE82EFED7072EFCD7020EB4EC34
:1010C2000CF02C0E076ED40EE82EFED7072EFCD79E
:1010D200280EB4EC0CF0020E086EB70E076E4C0E22
:1010E200E82EFED7072EFCD7082EFAD700D00C0E1A
:1010F200B4EC0CF0020E086EB70E076E4C0EE82E22
:10110200FED7072EFCD7082EFAD700D0010EB4EC7A
:101112000CF0020E086EB70E076E4C0EE82EFED7CC
:10112200072EFCD7082EFAD700D0060EB4EC0CF02E
:10113200020E086EB70E076E4C0EE82EFED7072E73
:10114200FCD7082EFAD700D0120003500410D8B4EE
:10115200ADEF08F0AFEF08F0B8EF08F0035004105D
:10116200D8A4B6EF08F0B8EF08F0BDEF08F00150D0
:101172007EEC0EF00AEF09F020EE09F00350D926BA
:101182000450DA22DE50DE10D8B4CAEF08F0CCEFF9
:1011920008F0E7EF08F020EE09F00350D9260450DA
:1011A200DA2210EE03F00350E1260450E222DE5070
:1011B200E65CE650800A096EDE50800A0958D8B013
:1011C200E5EF08F0E7EF08F00AEF09F020EE03F090
:1011D2000350D9260450DA22DECF05F0DDCF06F027
:1011E20003C0D9FF04C0DAFFDECF07F0DDCF08F07D
:1011F20005500724D96E06500820DA6E01C0DFFFC1
:1012020020EE03F00350D9260450DA22DE2A000E23
:10121200DD221200000166A111EF09F013EF09F0BF
:101222001DEF09F013C00AF014C00BF011C00CF04E
:1012320012C00DF0FCEC0CF016BE22EF09F024EF08
:1012420009F02AEF09F015C01AF016C01BF02EEFB4
:1012520009F0000E1B6E000E1A6E000E196E000EC3
:10126200186E40EF09F0000E026E200E016E11C0E2
:1012720003F012C004F0A6EC08F0184A192A1A501A
:10128200185C1950800A176E1B50800A1758D8A094
:101292004DEF09F04FEF09F034EF09F0000166B1AC
:1012A20055EF09F057EF09F061EF09F013C00AF0AA
:1012B20014C00BF011C00CF012C00DF0FCEC0CF0DD
:1012C20013C001F014C002F0ACEC0DF01A5001246E
:1012D200116E1B500220126E1200036E000E076E7A
:1012E200000E066E8C928C90035003247E0B016ECE
:1012F200026A800E0110046E0250056E000E096E25
:10130200080E086E04BE88EF09F08CEF09F0016A3E
:10131200012A8DEF09F0016A014601468C5001183D
:10132200FB0B01188C6E8C82D890043605368C9299
:101332000806D8A0090608500910D8A4A3EF09F09E
:10134200A5EF09F083EF09F0000E096E080E086E92
:101352008C82D8900636073683B6B2EF09F0B6EF24
:1013620009F0016A012AB7EF09F0016A0150061279
:101372008C920806D8A0090608500910D8A4C4EF18
:1013820009F0C6EF09F0A9EF09F08C808C820650B3
:101392001200000E0A6E0001BC8106EF0AF00A502C
:1013A2000524076E000E0620086E07C0F6FF08C06F
:1013B200F7FFF86A070EF76403D00800F55005D06E
:1013C200F6CFE1FFF7CFE2FFE750F00B90EC0DF024
:1013D2000A500524076E000E0620086E07C0F6FFAD
:1013E20008C0F7FFF86A070EF76403D00800F5504B
:1013F20005D0F6CFE1FFF7CFE2FFE750096E0938DB
:10140200F00BF00B90EC0DF00A2A0A500524076E3F
:10141200000E0620086E07C0F6FF08C0F7FFF86A44
:10142200070EF76403D00800F55005D0F6CFE1FFB0
:10143200F7CFE2FFE7500009D8A422EF0AF024EF29
:101442000AF0D0EF09F01200000E236E000E016EBA
:101452000D0E21EC0BF020C0D9FF21C0DAFF930E54
:10146200DF6E20EE01F02050D9262150DA22200E24
:10147200DF6E080E0A6E080E53EC0EF020C00DF05F
:1014820021C00EF0020E0F6E20C010F021C011F02C
:10149200240E126E000E136E0C0E5BEC05F0266E1F
:1014A2002650D8A457EF0AF059EF0AF07DEF0AF060
:1014B200000E276E27502024D96E000E2120DA6EEE
:1014C200DF50231A272A030E27646AEF0AF06CEF13
:1014D2000AF05BEF0AF020EE04F02050D9262150EA
:1014E200DA222350DE18D8B479EF0AF07BEF0AF043
:1014F2007DEF0AF0020E266E26501200000E096ED3
:10150200000E0A6E000E0B6E000E0C6E05500610D9
:1015120007100810D8B490EF0AF092EF0AF0C8EF63
:101522000AF0010E0D6E9CEF0AF0D89005360636D1
:10153200073608360D2A08AEA1EF0AF0A3EF0AF02B
:1015420096EF0AF0D89009360A360B360C3605505B
:10155200015C065002580750035808500458D8A09E
:10156200B5EF0AF0B7EF0AF0C0EF0AF00550015EDE
:101572000650025A0750035A0850045A0980D8905C
:1015820008320732063205320D2EA3EF0AF009C0E7
:1015920001F00AC002F00BC003F00CC004F012000C
:1015A200040E0A6E050E53EC0EF0800E0A6E0A0E41
:1015B20060EC0EF0000E136EEBEF0AF00DC0D9FFD7
:1015C2000EC0DAFFDF50016E090E21EC0BF00D4A5E
:1015D2000E2A132A0F50135CD8A0F2EF0AF0F4EF90
:1015E2000AF0DFEF0AF0030E016E010E21EC0BF0A0
:1015F2001368050E6EEC09F0126E13061350D8B480
:1016020005EF0BF007EF0BF00EEF0BF012A40CEF4F
:101612000BF00EEF0BF0FAEF0AF0220E6EEC09F06F
:1016220010C0D9FF11C0DAFFDF6E20EE01F01050BA
:10163200D9261150DA22210E6EEC09F0DF6E12006B
:10164200036E8C928C90035003247E0B046E080E62
:10165200056E04BE2FEF0BF033EF0BF0026A022A85
:1016620034EF0BF0026A024602468C500218FB0B62
:1016720002188C6E8C82D89004368C920506055026
:10168200D8A446EF0BF048EF0BF02AEF0BF0080E50
:10169200056E01BE4FEF0BF053EF0BF0026A022A08
:1016A20054EF0BF0026A024602468C500218FB0B02
:1016B20002188C6E8C82D89001368C9205060550E9
:1016C200D8A466EF0BF068EF0BF04AEF0BF08C80BA
:1016D2008C8212000A6E86EF0BF00A50BF0FB4EC38
:1016E2000CF09FEF0BF00A50930FB4EC0CF09FEF4D
:1016F2000BF00A50D30FB4EC0CF09FEF0BF00A5032
:101702007F0FB4EC0CF09FEF0BF00750086E096AE4
:101712000950000AD8B490EF0BF080EF0BF008509C
:10172200020AD8B46EEF0BF0010AD8B474EF0BF0D2
:10173200070AD8B47AEF0BF080EF0BF01200226E9A
:10174200070E016E0D0E21EC0BF020C0D9FF21C057
:10175200DAFF22C0DFFF20C00DF021C00EF0010E23
:101762000F6E20C010F021C011F0240E126E000E78
:10177200136E0C0E5BEC05F0236E2350D8A4C4EF5D
:101782000BF0C6EF0BF0D0EF0BF0100E2418251063
:10179200D8B4CEEF0BF0D0EF0BF0D2EF0BF0020E7D
:1017A200236E2350120054C058F055C059F0000E59
:1017B2000001616F000E606FF2EF0BF052C03FF05C
:1017C20053C040F0580E416E000E426E56C043F0B8
:1017D20057C044F0A2EC06F03F5000016027405091
:1017E200612358C0F6FF59C0F7FF0800F550000901
:1017F200D8A4FEEF0BF000EF0CF0DFEF0BF060C0AF
:1018020052F061C053F0120095949592959095868E
:1018120095988C928C948C808C88F3EC0DF08D0EC4
:10182200016E2A0E21EC0BF03E0E016E2B0E21EC06
:101832000BF01E0E016E2D0E21EC0BF0000E016E50
:101842002C0E21EC0BF0400E016E150E21EC0BF06C
:101852003D0E016E110E21EC0BF075EC0EF06CECEE
:101862000EF01200500E206E000E216E200E0D6E34
:10187200000E0E6E020E0F6E220E106E000E116E14
:10188200D1EC0AF0800E0A6E080E53EC0EF0200E18
:101892000D6E000E0E6E040E0F6E200E106E000EF8
:1018A200116E240E126E000E136E0C0E5BEC05F020
:1018B200080E0A6E080E53EC0EF01200280EC66EC9
:1018C200000EC56EC00E016EFC0E026E9B0E036E04
:1018D200010E046E0EC012F00FC013F010C014F00F
:1018E20011C015F0020ED890123613361436153682
:1018F200E82E74EF0CF012C005F013C006F014C00D
:1019020007F015C008F07FEC0AF00104C86E000E63
:10191200C76E12005E0E0001AB6F000EAC6F5AC0B4
:10192200ADF05BC0AEF0000EB16F000EB06F000EF6
:10193200B76F000EB66FAD0E526E000E536E5CC0E6
:1019420054F05DC055F0AB0E566E000E576ED4ECDF
:101952000BF00001B0515A24D96EB1515B20DA6EFE
:10196200000EDF6E1200066E0001BC910650F00BF5
:1019720090EC0DF00638F00BF00B90EC0DF0060435
:10198200D8B4C6EF0CF0C8EF0CF0D1EF0CF0020E99
:101992000618D8A4CFEF0CF0D1EF0CF0D9EF0CF071
:1019A200120E056E870EE82EFED7052EFCD700F02C
:1019B20012009F0E096EFF0E0A6E07C00BF008C0E0
:1019C2000CF009500B260A500C220C5007E11A0E9B
:1019D2000B5CD8B0EFEF0CF0F1EF0CF0F7EF0CF07E
:1019E2005F0E0714076E086AFBEF0CF007C007F0E2
:1019F20008C008F01200000E106E000E0F6E0DEF00
:101A02000DF00EC001F0026A0CC003F00DC004F02C
:101A1200A6EC08F00F4A102A0F500A24D96E105073
:101A22000B20DA6EDF500E6E0E50D8A41BEF0DF0B5
:101A32001DEF0DF002EF0DF012009F0E036EFF0E70
:101A4200046E200E0110056E000E0210066E035089
:101A520005260450062206500AE11A0E055CD8A09B
:101A620035EF0DF038EF0DF0010E39EF0DF0000EED
:101A7200016E026A12009F0E036EFF0E046E01C019
:101A820005F002C006F00350052604500622065057
:101A92000AE11A0E055CD8A051EF0DF054EF0DF0DB
:101AA200010E55EF0DF0000E016E026A1200BF0E1C
:101AB200036EFF0E046E01C005F002C006F0035073
:101AC20005260450062206500AE11A0E055CD8A02B
:101AD2006DEF0DF070EF0DF0010E71EF0DF0000ED5
:101AE200016E026A120028C020F029C021F025EC04
:101AF2000AF02A6E20EE04F02850D9262950DA2264
:101B0200000EDF6E2A50D8A489EF0DF08BEF0DF096
:101B12008EEF0DF0010E8FEF0DF0000E1200046E2D
:101B2200000E0001BCB1010E04120450FB0B44EC88
:101B32000EF000D000D000D00450040944EC0EF0A6
:101B420000D000D000D00450FB0B44EC0EF0E10EAC
:101B5200E82EFED7120001C003F002C004F0B4EF79
:101B62000DF0014A022A01C0D9FF02C0DAFFDF509C
:101B7200D8A4BEEF0DF0C0EF0DF0B2EF0DF00350A0
:101B8200015C016E04500258026E1200FE0EF66EE7
:101B92001C0EF76E000EF86E0900F5CFBDF00001C5
:101BA200BC6B00EE60F04B0EEE6AE806FDE1000E43
:101BB200F86E00018AEF07F0026EC7B4E3EF0DF092
:101BC200E5EF0DF0DEEF0DF0C5CF01F01F0E0116AF
:101BD200D8A4EEEF0DF0F0EF0DF0DEEF0DF002C045
:101BE200C9FF12008C8800D000D000D08C9800D0A1
:101BF20000D000D08C8800D000D000D00F0E016E33
:101C0200010E21EC0BF000D000D000D0120026C053
:101C120020F027C021F0260EA0EC0BF00009D8A47A
:101C220015EF0EF017EF0EF01AEF0EF0010E1BEF8C
:101C32000EF0000E1200C7B421EF0EF023EF0EF0EB
:101C42001CEF0EF0C5CF01F01F0E0116D8A42CEF29
:101C52000EF02EEF0EF01CEF0EF0C5841200C7B48A
:101C620035EF0EF037EF0EF030EF0EF0C5CF01F08A
:101C72001F0E0116D8A440EF0EF042EF0EF030EF27
:101C82000EF0C5801200036E30EC0EF00001BB5165
:101C9200DDEC0DF003500001BD11DDEC0DF01CEC8C
:101CA2000EF012000C6E0C506EEC09F00B6E0A5026
:101CB200FF0A0B14016E0C5021EC0BF012000C6E9B
:101CC2000C506EEC09F00B6E0B500A10016E0C50AA
:101CD20021EC0BF01200140E6EEC09F0030E0A6EEA
:101CE200140E60EC0EF01200030E0A6E140E53EC8A
:0D1CF2000EF01200939E8A9E120012000850
:020000040020DA
:08000000FFFFFFFFFFFFFFFF00
:020000040030CA
:0E000000000C1E1EFF8181FF0FC00FE00F409D
:00000001FF
