:04000000BBEF16F04C
:1008000000506F736974696F6E203100506F7369A7
:1008100074696F6E2032005031005032002558004C
:0108200000D7
:100822002B50800B346E2B502B24366E2AAE1CEFCD
:1008320004F01EEF04F01FEF04F036803650D8B4F7
:1008420025EF04F027EF04F03CEF04F03628D8A49B
:100852002DEF04F02FEF04F037EF04F0000E286EB6
:10086200000E296E000E2A6E000E2B6E2A8E000ECE
:100872002B6E44EF04F0000E286E000E296E000E5F
:100882002A6E000E2B6E2F50800B356E34503518A9
:10089200D8B44EEF04F050EF04F051EF04F0348C72
:1008A2002F502F24356E2EAE59EF04F05BEF04F07B
:1008B2005CEF04F035803550D8B462EF04F064EF99
:1008C20004F079EF04F03528D8A46AEF04F06CEF55
:1008D20004F074EF04F0000E2C6E000E2D6E000E6C
:1008E2002E6E000E2F6E2E8E000E2F6E81EF04F0F4
:1008F200000E2C6E000E2D6E000E2E6E000E2F6E50
:100902003650355CD8B088EF04F08AEF04F0B1EFCE
:1009120004F034AC8FEF04F091EF04F093EF04F0A5
:10092200800E341A36C037F035C036F037C035F095
:1009320028C037F02CC028F037C02CF029C037F07F
:100942002DC029F037C02DF02AC037F02EC02AF072
:1009520037C02EF02BC037F02FC02BF037C02FF04E
:10096200000E376E365035C030F0316A305E000E00
:10097200315A31BEC6EF04F0315009E11A0E305C33
:10098200D8A0C6EF04F0C8EF04F0FFEF04F028503F
:1009920029102A102B10D8A4D1EF04F0D4EF04F0C0
:1009A200010ED5EF04F0000E376E000E286E000E19
:1009B200296E000E2A6E000E2B6E35C036F008EF3F
:1009C20005F037A0E7EF04F0E9EF04F0EFEF04F0F1
:1009D200D89037300109376EF1EF04F0D8903732F2
:1009E20028A0F6EF04F0F8EF04F0F9EF04F0378EE8
:1009F2002B342B322A3229322832362A3550365CB1
:100A0200D8A006EF05F008EF05F0E2EF04F034BCE1
:100A12000DEF05F00FEF05F04FEF05F03650D8A4BB
:100A220015EF05F017EF05F021EF05F0000E286E27
:100A3200000E296E000E2A6E000E2B6E70EF06F06D
:100A42002C5028262D5029222E502A222F502B227C
:100A52002BA02EEF05F030EF05F0DCEF05F037A00C
:100A620035EF05F037EF05F03DEF05F0D890373060
:100A72000109376E3FEF05F0D890373228A044EFD6
:100A820005F046EF05F047EF05F0378E2B342B3299
:100A92002A3229322832362ADCEF05F02C50285C23
:100AA2002D5029582E502A582B50800A306E2F5024
:100AB200800A3058D8B060EF05F062EF05F08DEF94
:100AC20005F028502C5C306E29502D58316E2A507A
:100AD2002E58326E2B502F58336EFF0E3024286E54
:100AE200FF0E3120296EFF0E32202A6EFF0E3320B8
:100AF2002B6E800E341A376C3750D8A483EF05F072
:100B020085EF05F095EF05F0010E2826000E29224B
:100B12002A222B2295EF05F02C50285E2D50295ABF
:100B22002E502A5A2F502B5A285029102A102B1097
:100B3200D8A49EEF05F0A0EF05F0D5EF05F03750F1
:100B4200D8A4A6EF05F0A8EF05F0D5EF05F0000E4A
:100B5200286E000E296E000E2A6E000E2B6E70EFAC
:100B620006F0D890283629362A362B3637AEBCEF17
:100B720005F0BEEF05F0BFEF05F0288037A0C4EF07
:100B820005F0C6EF05F0CAEF05F0D8803736CCEF96
:100B920005F0D89037363650D8B4D2EF05F0D4EFFE
:100BA20005F0D5EF05F036062AAEDAEF05F0DCEFF8
:100BB20005F0B2EF05F0000E356E37AEE3EF05F04B
:100BC200E5EF05F0FDEF05F037C030F07F0E30168F
:100BD200D8B4EEEF05F0F0EF05F0F4EF05F0010EFA
:100BE200356EFDEF05F028A0F9EF05F0FBEF05F0FB
:100BF200FDEF05F0F0EF05F03550D8B403EF06F045
:100C020005EF06F030EF06F0010E2826000E29222D
:100C12002A222B222BA010EF06F012EF06F030EF63
:100C220006F028C030F029C031F02AC032F02BC0C3
:100C320033F03334333232323132303230C028F092
:100C420031C029F032C02AF033C02BF03628D8B494
:100C52002DEF06F02FEF06F030EF06F0362A362899
:100C6200D8B436EF06F038EF06F040EF06F0365013
:100C7200D8A43EEF06F040EF06F052EF06F0000E69
:100C8200286E000E296E000E2A6E000E2B6E365054
:100C9200D8A44EEF06F050EF06F052EF06F0000E29
:100CA200346E36A057EF06F059EF06F05CEF06F00F
:100CB2002A8E5DEF06F02A9ED89036302B6E34AE27
:100CC20065EF06F067EF06F068EF06F02B8E28C09E
:100CD20028F029C029F02AC02AF02BC02BF01200DC
:100CE2001250800B1F6E12501224266E11AE7CEF32
:100CF20006F07EEF06F07FEF06F026802650D8B48D
:100D020085EF06F087EF06F09CEF06F02628D8A4C0
:100D12008DEF06F08FEF06F097EF06F0000E0F6EE4
:100D2200000E106E000E116E000E126E118E000E6D
:100D3200126EA4EF06F0000E0F6E000E106E000E83
:100D4200116E000E126E1650800B1F1A16501624CA
:100D5200276E15AEAFEF06F0B1EF06F0B2EF06F078
:100D620027802750D8B4B8EF06F0BAEF06F0CFEFDD
:100D720006F02728D8A4C0EF06F0C2EF06F0CAEFAB
:100D820006F0000E136E000E146E000E156E000EAD
:100D9200166E158E000E166ED7EF06F0000E136E4D
:100DA200000E146E000E156E000E166E1350141007
:100DB20015101610D8A4E0EF06F0E2EF06F0FAEFF5
:100DC20006F0000E0F6E000E106E000E116E000E79
:100DD200126E800E11127F0E12121F5012120FC0CD
:100DE2000FF010C010F011C011F012C012F03DEF60
:100DF20008F02650D8A400EF07F002EF07F00CEF3E
:100E020007F0000E0F6E000E106E000E116E000E37
:100E1200126E3DEF08F0275026C017F0186A175ED1
:100E2200000E185A7F0E1724206E000E1820216E15
:100E32000FC01BF010C01CF011C01DF012C01EF03C
:100E4200000E0F6E000E106E000E116E000E126E6E
:100E5200000E226E000E236E000E246E000E256E12
:100E6200000E276E6DEF07F02750D8B43BEF07F066
:100E72003DEF07F054EF07F0D8901B361C361D36B5
:100E82001E36D8900F3610361136123625AE4CEF7C
:100E920007F04EEF07F04FEF07F00F80D8902236A1
:100EA20023362436253613501B5C14501C5815501B
:100EB2001D5816501E58D8A061EF07F063EF07F0D7
:100EC2006CEF07F0258C13501B5E14501C5A155002
:100ED2001D5A16501E5A272A190E276473EF07F05F
:100EE20075EF07F035EF07F01B501C101D101E1098
:100EF200D8B47EEF07F080EF07F098EF07F022807A
:100F020098EF07F0D8900F3610361136123625AE0C
:100F12008DEF07F08FEF07F090EF07F00F80D8907A
:100F220022362336243625362006D8A0210611AED5
:100F32009DEF07F09FEF07F083EF07F0000E276E9B
:100F420025AEA6EF07F0A8EF07F0CCEF07F0FF0EF3
:100F52002214176EFF0E2314186EFF0E2414196E3E
:100F62007F0E25141A6E1750181019101A10D8B4C3
:100F7200BDEF07F0BFEF07F0C3EF07F0010E276EDA
:100F8200CCEF07F00FA0C8EF07F0CAEF07F0CCEFE5
:100F920007F0BFEF07F02750D8B4D2EF07F0D4EF35
:100FA20007F0F8EF07F0010E0F26000E10221122B3
:100FB200122212A0DFEF07F0E1EF07F0F8EF07F0DF
:100FC2000FC017F010C018F011C019F012C01AF0BB
:100FD2001A341A3219321832173217C00FF018C0E9
:100FE20010F019C011F01AC012F0204A212A21BEB5
:100FF20003EF08F0215008E12028D8A003EF08F001
:1010020005EF08F010EF08F0000E216E2068000EC8
:101012000F6E000E106E000E116E000E126E21BECB
:101022001DEF08F0215006E12004D8B01BEF08F0B4
:101032001DEF08F02BEF08F0000E216E000E206E5F
:10104200000E0F6E000E106E000E116E000E126E6C
:10105200000E1F6E20C026F026A032EF08F034EFFB
:1010620008F037EF08F0118E38EF08F0119ED89093
:101072002630126EEEEF06F01200000165BF44EF5B
:1010820008F046EF08F047EF08F0669365BF54EFAB
:1010920008F0655106E16405D8B052EF08F054EF4C
:1010A20008F05AEF08F0000E306E010E2F6E5EEF60
:1010B20008F064C02FF065C030F062C031F063C048
:1010C20032F066A967EF08F069EF08F06DEF08F0FB
:1010D200FE0E3126FF0E32221EC033F01FC034F046
:1010E20020C035F021C036F022C037F023C038F0DE
:1010F20024C039F025C03AF0000E3C6E1F0E3B6E44
:10110200000E8B6F1EEF09F03B06D8A03C060F0EB7
:1011120033143D6E3E6A3EBE98EF08F03E5009E140
:101122000A0E3D5CD8A098EF08F09AEF08F0A2EF03
:1011320008F0570E3D243D6E000E3E203E6EA8EF95
:1011420008F0300E3D243D6E000E3E203E6EBF0E76
:10115200276EFF0E286E2650296E2A6A27502926EE
:1011620028502A222A5007E11A0E295CD8B0BCEF77
:1011720008F0BEEF08F0E1EF08F09F0E276EFF0EB9
:10118200286E200E3D10296E000E3E102A6E27504A
:10119200292628502A222A5007E11A0E295CD8B0A3
:1011A200D5EF08F0D7EF08F0E1EF08F03DC007F007
:1011B2003EC008F0DEEC16F007C03DF008C03EF07D
:1011C2006C0E3B24D96E000E3C20DA6E3DC0DFFF70
:1011D2002F06D8A030063106D8A0320633C027F039
:1011E20034C028F035C029F036C02AF037C02BF0C1
:1011F20038C02CF039C02DF03AC02EF0050E0BEF9E
:1012020009F0D8902E322D322C322B322A3229324A
:1012120028322732E82E02EF09F027C033F028C027
:1012220034F029C035F02AC036F02BC037F02CC07C
:1012320038F02DC039F02EC03AF03CBE2AEF09F04A
:101242003C5009E1020E3B5CD8A02AEF09F02CEFDA
:1012520009F05DEF09F033503410351036103710B5
:10126200381039103A10D8A439EF09F03BEF09F0E1
:1012720085EF08F030BE48EF09F0305006E12F0448
:10128200D8B046EF09F048EF09F085EF08F032BE1A
:1012920053EF09F0325008E13104D8A053EF09F0BE
:1012A20055EF09F05DEF09F0000166B35BEF09F05D
:1012B2005DEF09F085EF08F0000166A963EF09F020
:1012C20065EF09F07BEF09F03B06D8A03C066C0EF7
:1012D2003B24D96E000E3C20DA6E26C0DFFF3B06AF
:1012E200D8A03C066C0E3B24D96E000E3C20DA6E70
:1012F200300EDF6E1CC011F01DC012F06C0E3B24CC
:10130200136E000E3C20146E31C015F032C016F080
:1013120070EC10F011C01CF012C01DF012001C6E17
:10132200020E196E000E1B6E000E186EA5EF09F06C
:10133200120E1B6E100E186EBAEF09F0770E1B6EAE
:10134200300E186EBAEF09F01C50146E156A155063
:10135200000AD8B4AFEF09F0BAEF09F014500C0A42
:10136200D8B49FEF09F0020AD8B499EF09F0BAEFA6
:1013720009F01B508009016E020E7FEC14F0800E02
:101382000A6E040E14EC18F0800E0A6E0A0E2EEC91
:1013920018F0000E016E010E7FEC14F0000E1E6EAE
:1013A200000E1D6EE2EF09F01D500D24D96E1E5085
:1013B2000E20DA6EDF50016E090E7FEC14F01D4A2A
:1013C2001E2A0F50146E156A14501D5C15501E58BB
:1013D200D8A0EEEF09F0F0EF09F0D5EF09F01CC04C
:1013E20001F0010E7FEC14F00C0E1C18D8A4FCEFD7
:1013F20009F0FEEF09F003EF0AF0800E0A6E0D0EFF
:101402002EEC18F01D681E68040ED3EC10F01F6E4F
:101412001D06D8A01E061D501E10D8B413EF0AF0E8
:1014220015EF0AF026EF0AF01FB01AEF0AF01CEFD0
:101432000AF026EF0AF01F5018140009D8B424EF5E
:101442000AF026EF0AF005EF0AF0800E0A6E0D0E82
:1014520014EC18F01D501E10D8B432EF0AF034EF1D
:101462000AF0D5EF0AF0060ED3EC10F0146E1B0E44
:101472001416D8A43FEF0AF041EF0AF0D3EF0AF0B6
:10148200000E196E1F501B14146E14A04BEF0AF0BD
:101492004DEF0AF04FEF0AF0010E196E0C0E1C18F8
:1014A200D8A456EF0AF058EF0AF0D5EF0AF00A0E68
:1014B200D3EC10F01F6E0C0ED3EC10F0070B1A6E6B
:1014C2001A50D8B467EF0AF069EF0AF08BEF0AF00E
:1014D200F80E146EFF0E156E1A501FC016F0176A22
:1014E200D89016361736D89016361736D890163644
:1014F20017361626000E17221450162615501722DC
:1015020012C0D9FF13C0DAFF16C0DEFF17C0DDFF1D
:1015120095EF0AF01F50080D12C0D9FF13C0DAFF71
:10152200F3CFDEFFF4CFDDFF1F50D8A49BEF0AF00C
:101532009DEF0AF09FEF0AF0010E1F6E100E1F645E
:10154200A5EF0AF0A7EF0AF0A9EF0AF0100E1F6E3E
:10155200000E1E6E000E1D6EBBEF0AF01D50102411
:10156200D96E1E501120DA6E090ED3EC10F0DF6E28
:101572001D4A1E2A1F50146E156A14501D5C155008
:101582001E58D8A0C7EF0AF0C9EF0AF0AFEF0AF071
:101592001D501024D96E1E501120DA6E000EDF6E1F
:1015A200D5EF0AF0020E196E195012001C6E020ECF
:1015B200196E000E1B6E000E186EECEF0AF0120E82
:1015C2001B6E100E186E01EF0BF0770E1B6E300EB5
:1015D200186E01EF0BF01C50146E156A1550000ABC
:1015E200D8B4F6EF0AF001EF0BF014500C0AD8B49D
:1015F200E6EF0AF0020AD8B4E0EF0AF001EF0BF0CE
:101602001B508009016E020EC9EC14F0800E0A6EA6
:10161200040E21EC18F0800E0A6E0A0E3AEC18F055
:10162200000E016E010EC9EC14F0000E1E6E000ECB
:101632001D6E29EF0BF01D500D24D96E1E500E2089
:10164200DA6EDF50016E090EC9EC14F01D4A1E2A33
:101652000F50146E156A14501D5C15501E58D8A0F8
:1016620035EF0BF037EF0BF01CEF0BF01CC001F065
:10167200010EC9EC14F00C0E1C18D8A443EF0BF0A9
:1016820045EF0BF04AEF0BF0800E0A6E0D0E3AECAE
:1016920018F01D681E68040E2FEC11F01F6E1D0657
:1016A200D8A01E061D501E10D8B45AEF0BF05CEFE6
:1016B2000BF06DEF0BF01FB061EF0BF063EF0BF06F
:1016C2006DEF0BF01F5018140009D8B46BEF0BF03C
:1016D2006DEF0BF04CEF0BF0800E0A6E0D0E21EC4D
:1016E20018F01D501E10D8B479EF0BF07BEF0BF001
:1016F2001CEF0CF0060E2FEC11F0146E1B0E1416DC
:10170200D8A486EF0BF088EF0BF01AEF0CF0000E66
:10171200196E1F501B14146E14A092EF0BF094EF6D
:101722000BF096EF0BF0010E196E0C0E1C18D8A4DC
:101732009DEF0BF09FEF0BF01CEF0CF00A0E2FEC5D
:1017420011F01F6E0C0E2FEC11F0070B1A6E1A50CF
:10175200D8B4AEEF0BF0B0EF0BF0D2EF0BF0F80E07
:10176200146EFF0E156E1A501FC016F0176AD8902D
:1017720016361736D89016361736D89016361736CC
:101782001626000E1722145016261550172212C0C4
:10179200D9FF13C0DAFF16C0DEFF17C0DDFFDCEF92
:1017A2000BF01F50080D12C0D9FF13C0DAFFF3CFA0
:1017B200DEFFF4CFDDFF1F50D8A4E2EF0BF0E4EF21
:1017C2000BF0E6EF0BF0010E1F6E100E1F64ECEF34
:1017D2000BF0EEEF0BF0F0EF0BF0100E1F6E000EA1
:1017E2001E6E000E1D6E02EF0CF01D501024D96EFD
:1017F2001E501120DA6E090E2FEC11F0DF6E1D4A19
:101802001E2A1F50146E156A14501D5C15501E5866
:10181200D8A00EEF0CF010EF0CF0F6EF0BF01D500D
:101822001024D96E1E501120DA6E000EDF6E1CEFEE
:101832000CF0020E196E19501200A00E0E6E860EDA
:101842000F6E010E106E000E116E19EC16F04E0E98
:1018520094EC0FF0EDEC12F0800E386E250E396E1E
:10186200000E3A6E000E3B6E31EC14F0120E0001C7
:10187200ED6F200EEC6F0F0EE82EFED7EC2FFCD78B
:10188200ED2FFAD700D0C90E266E000E276E6BEC34
:1018920018F0A00E286E000E296EF6EC17F0A00EBE
:1018A200206E000E216E40EC12F000016B6FC80E2C
:1018B200266E000E276E63EC18F08C0E286E000E5A
:1018C200296EE7EC17F08C0E206E000E216EE6EC0E
:1018D20011F000016A6FA00E016E000E026E6EEC36
:1018E20016F001040210D8B479EF0CF07BEF0CF083
:1018F2008AEF0CF08C0E016E000E026E6EEC16F08A
:1019020001040210D8A488EF0CF08AEF0CF08DEFDE
:101912000CF0010E95EC16F0020E076E010E4BEC68
:1019220015F000016B51D8A499EF0CF09BEF0CF06D
:10193200E7EF0CF0170E056E080E066E13EC15F0AD
:10194200000E0001EE6FB40E5A6E000E5B6E1D0E9D
:101952005C6E080E5D6EA00EEE25D96EDA6A000E80
:10196200DA22DF50EC6FEC515E6E5F6A45EC16F0E6
:10197200B40E056E000E066E8BEC11F0B40E056E01
:10198200000E066E13EC15F00001EE2B040EEE6550
:10199200CDEF0CF0CFEF0CF0A4EF0CF0010E076EC0
:1019A200010E4BEC15F0010E056E080E066E8BEC67
:1019B20011F0120E0001ED6F200EEC6F0F0EE82EEB
:1019C200FED7EC2FFCD7ED2FFAD700D000016A51D9
:1019D200D8A4EEEF0CF0F0EF0CF03CEF0DF01A0E85
:1019E200056E080E066E13EC15F0000E0001EF6F87
:1019F200B40E5A6E000E5B6E1D0E5C6E080E5D6EAE
:101A02008C0EEF25D96EDA6A000EDA22DF50EC6F07
:101A1200EC515E6E5F6A45EC16F0B40E056E000E78
:101A2200066E8BEC11F0B40E056E000E066E13EC12
:101A320015F00001EF2B040EEF6522EF0DF024EFFD
:101A42000DF0F9EF0CF0010E076E010E4BEC15F0E4
:101A52000C0E056E080E066E8BEC11F0120E0001D4
:101A6200ED6F200EEC6F0F0EE82EFED7EC2FFCD799
:101A7200ED2FFAD700D0020E0001ED6FB70EEC6F1A
:101A82004C0EE82EFED7EC2FFCD7ED2FFAD700F044
:101A92009AEC12F044EF0CF000EF00F041C0D9FFD5
:101AA20042C0DAFFDECFF6FFDDCFF7FF0800F550C8
:101AB200250AD8A45FEF0DF061EF0DF01BEF0EF0D9
:101AC20041C0D9FF42C0DAFFDE2A000EDD22000E3D
:101AD2000001636F000E626F62C066F063C067F060
:101AE2006469656941C0D9FF42C0DAFFDECFF6FF03
:101AF200DDCFF7FF0800F550780AD8B483EF0DF078
:101B020085EF0DF097EF0DF041C0D9FF42C0DAFF2B
:101B1200DECFF6FFDDCFF7FF0800F550580AD8A454
:101B220095EF0DF097EF0DF0E5EF0DF041C0D9FF05
:101B320042C0DAFFDECFF6FFDDCFF7FF0800F5CFB8
:101B420051F041C0D9FF42C0DAFFDE2A000EDD2289
:101B520043C0D9FF44C0DAFFDFCF45F0020EDE26D4
:101B6200DFCF46F0000EDD2245C0D9FF46C0DAFFC6
:101B7200DECF47F0DDCF48F047C049F048C04AF019
:101B82004B6A4C6A4D6A4E6A4F6A506A3FC01CF0FB
:101B920040C01DF049C01EF04AC01FF04BC020F0EB
:101BA2004CC021F04DC022F04EC023F04FC024F0B3
:101BB20050C025F051C026F03EEC08F01CC03FF0AA
:101BC2001DC040F036EF0EF041C0D9FF42C0DAFF2F
:101BD200DECFF6FFDDCFF7FF0800F550250AD8A4C7
:101BE200F5EF0DF0F7EF0DF00EEF0EF041C0D9FF5B
:101BF20042C0DAFFDE2A000EDD22000E026E250E42
:101C0200016E3FC003F040C004F00BEC10F0000E78
:101C1200406E010E3F6E36EF0EF041C0D9FF42C05A
:101C2200DAFFDE2A000EDD22000E406E000E3F6E4D
:101C320036EF0EF041C0D9FF42C0DAFFDECFF6FF29
:101C4200DDCFF7FF0800F550016E026A3FC003F0D6
:101C520040C004F00BEC10F041C0D9FF42C0DAFFE3
:101C6200DE2A000EDD2208EF0EF01200096E095086
:101C7200D8B43EEF0EF040EF0EF062EF0EF004BE6D
:101C820047EF0EF045EF0EF062EF0EF001C005F0E7
:101C920002C006F003C007F004C008F0051E061ECD
:101CA200071E081E052A000E06220722082205C06A
:101CB2000BF006C00CF007C00DF008C00EF06AEF82
:101CC2000EF001C00BF002C00CF003C00DF004C016
:101CD2000EF00150021003100410D8A473EF0EF09E
:101CE20075EF0EF07FEF0EF0000E016E000E026E29
:101CF200000E036E000E046E10EF0FF0960E0A6EC9
:101D020089EF0EF00A2AD8900E320D320C320B32C5
:101D1200000E0B14056E000E0C14066E000E0D1450
:101D2200076EFE0E0E14086E0550061007100810FE
:101D3200D8A49EEF0EF0A0EF0EF083EF0EF0AEEF00
:101D42000EF00A2A010E0B26000E0C220D220E2284
:101D5200D8900E320D320C320B32000E0B14056E7F
:101D6200000E0C14066E000E0D14076EFF0E0E14FC
:101D7200086E0550061007100810D8A4C3EF0EF025
:101D8200C5EF0EF0A2EF0EF0CDEF0EF00A06D890DE
:101D92000B360C360D360E360DBED2EF0EF0D4EFEA
:101DA2000EF0DCEF0EF0020E0A60DAEF0EF0DCEF5E
:101DB2000EF0C7EF0EF00AB0E1EF0EF0E3EF0EF017
:101DC200E4EF0EF00D9ED8900A320AC005F0066AC2
:101DD200076A086A05C008F0076A066A056A0550BC
:101DE2000B1206500C1207500D1208500E12095019
:101DF200D8B4FEEF0EF000EF0FF008EF0FF004BEC4
:101E020007EF0FF005EF0FF008EF0FF00E8E0BC08B
:101E120001F00CC002F00DC003F00EC004F012007D
:101E2200033404340A6E0A50D8A41AEF0FF01CEFE0
:101E32000FF026EF0FF0000E016E000E026E000E84
:101E4200036E000E046E93EF0FF001C005F002C0A6
:101E520006F003C007F004C008F0200E36EF0FF0C2
:101E6200D8900832073206320532E82E31EF0FF0F1
:101E72000550096E038EFF0E0116FF0E0216FF0EAD
:101E82000316000E0416960E0A5E0ABE4DEF0FF000
:101E92004BEF0FF063EF0FF00A50800A970FD8B0A4
:101EA20055EF0FF057EF0FF059EF0FF01CEF0FF057
:101EB200D89004320332023201320A3E59EF0FF057
:101EC2007BEF0FF01F0E0A6469EF0FF06BEF0FF05C
:101ED20073EF0FF01CEF0FF0D89001360236033685
:101EE20004360A060A50D8A479EF0FF07BEF0FF000
:101EF2006DEF0FF00950D8B481EF0FF083EF0FF0C0
:101F02008BEF0FF0041E031E021E016C000E022254
:101F12000322042201C001F002C002F003C003F058
:101F220004C004F01200096E09C0F0F0000E05ECC6
:101F320018F0020E086E5F0E076EA30EE82EFED793
:101F4200072EFCD7082EFAD700F0030E95EC16F0F8
:101F52002C0E076ED40EE82EFED7072EFCD7030EEA
:101F620095EC16F02C0E076ED40EE82EFED7072E37
:101F7200FCD7030E95EC16F02C0E076ED40EE82E4D
:101F8200FED7072EFCD7020E95EC16F02C0E076E2C
:101F9200D40EE82EFED7072EFCD7280E95EC16F0AD
:101FA200020E086EB70E076E4C0EE82EFED7072EF5
:101FB200FCD7082EFAD700D00C0E95EC16F0020EC4
:101FC200086EB70E076E4C0EE82EFED7072EFCD712
:101FD200082EFAD700D0010E95EC16F0020E086E0C
:101FE200B70E076E4C0EE82EFED7072EFCD7082E32
:101FF200FAD700D0060E95EC16F0020E086EB70E58
:10200200076E4C0EE82EFED7072EFCD7082EFAD705
:1020120000D0120003500410D8B412EF10F014EFE5
:1020220010F01DEF10F003500410D8A41BEF10F0B5
:102032001DEF10F022EF10F001507FEC18F06FEF5F
:1020420010F020EE09F00350D9260450DA22DE50B7
:10205200DE10D8B42FEF10F031EF10F04CEF10F08B
:1020620020EE09F00350D9260450DA2210EE03F0D4
:102072000350E1260450E222DE50E65CE650800A7C
:10208200096EDE50800A0958D8B04AEF10F04CEFC2
:1020920010F06FEF10F020EE03F00350D926045039
:1020A200DA22DECF05F0DDCF06F003C0D9FF04C08F
:1020B200DAFFDECF07F0DDCF08F005500724D96E36
:1020C20006500820DA6E01C0DFFF20EE03F0035055
:1020D200D9260450DA22DE2A000EDD221200000187
:1020E20066A176EF10F078EF10F082EF10F013C0D7
:1020F2000AF014C00BF011C00CF012C00DF000EC8D
:1021020017F016BE87EF10F089EF10F08FEF10F086
:1021120015C01AF016C01BF093EF10F0000E1B6EE4
:10212200000E1A6E000E196E000E186EA5EF10F05A
:10213200000E026E200E016E11C003F012C004F0F8
:102142000BEC10F0184A192A1A50185C1950800A20
:10215200176E1B50800A1758D8A0B2EF10F0B4EFD8
:1021620010F099EF10F0000166B1BAEF10F0BCEF79
:1021720010F0C6EF10F013C00AF014C00BF011C03B
:102182000CF012C00DF000EC17F013C001F014C0F7
:1021920002F06EEC16F01A500124116E1B50022050
:1021A200126E1200036E000E076E000E066E8C9207
:1021B2008992035003247E0B016E026A800E011085
:1021C200046E0250056E000E096E080E086E04BE03
:1021D200EDEF10F0F1EF10F0016A012AF2EF10F0CA
:1021E200016A014601468C500118FB0B01188C6EE6
:1021F2008C82D890043605368C920806D8A009063F
:1022020008500910D8A408EF11F00AEF11F0E8EF16
:1022120010F0000E096E080E086E8C82D8900636F9
:10222200073683B617EF11F01BEF11F0016A012A8E
:102232001CEF11F0016A015006128C920806D8A018
:10224200090608500910D8A429EF11F02BEF11F05C
:102252000EEF11F089828C8206501200036E000E7E
:10226200076E000E066E8C928990035003247E0B3B
:10227200016E026A800E0110046E0250056E000E9D
:10228200096E080E086E04BE49EF11F04DEF11F011
:10229200016A012A4EEF11F0016A014601468C5093
:1022A2000118FB0B01188C6E8C82D890043605360F
:1022B2008C920806D8A0090608500910D8A464EF29
:1022C20011F066EF11F044EF11F0000E096E080EE6
:1022D200086E8C82D8900636073683B673EF11F0FB
:1022E20077EF11F0016A012A78EF11F0016A0150CB
:1022F20006128C920806D8A0090608500910D8A424
:1023020085EF11F087EF11F06AEF11F089808C826E
:1023120006501200000E0A6E0001F181C7EF11F0A3
:102322000A500524076E000E0620086E07C0F6FF4D
:1023320008C0F7FFF86A070EF76403D00800F550EB
:1023420005D0F6CFE1FFF7CFE2FFE750F00B78ECD4
:1023520017F00A500524076E000E0620086E07C00B
:10236200F6FF08C0F7FFF86A070EF76403D008000B
:10237200F55005D0F6CFE1FFF7CFE2FFE750096E47
:102382000938F00BF00B78EC17F00A2A0A500524F2
:10239200076E000E0620086E07C0F6FF08C0F7FFA2
:1023A200F86A070EF76403D00800F55005D0F6CF9F
:1023B200E1FFF7CFE2FFE7500009D8A4E3EF11F005
:1023C200E5EF11F091EF11F01200000E236E000EF6
:1023D200016E0D0E7FEC14F020C0D9FF21C0DAFF90
:1023E200930EDF6E20EE01F02050D9262150DA2222
:1023F200200EDF6E080E0A6E080E14EC18F020C0D4
:102402000DF021C00EF0020E0F6E20C010F021C0A0
:1024120011F0240E126E000E136E0C0E90EC09F0E9
:10242200266E2650D8A418EF12F01AEF12F03EEFE3
:1024320012F0000E276E27502024D96E000E2120A4
:10244200DA6EDF50231A272A040E27642BEF12F0CC
:102452002DEF12F01CEF12F020EE05F02050D926DD
:102462002150DA222350DE18D8B43AEF12F03CEFB2
:1024720012F03EEF12F0020E266E26501200000EEF
:10248200236E000E016E0D0EC9EC14F020C0D9FFB0
:1024920021C0DAFF930EDF6E20EE01F02050D92624
:1024A2002150DA22200EDF6E080E0A6E080E21EC91
:1024B20018F020C00DF021C00EF0020E0F6E20C0E9
:1024C20010F021C011F0240E126E000E136E0C0ECD
:1024D200D7EC0AF0266E2650D8A472EF12F074EFF1
:1024E20012F098EF12F0000E276E27502024D96EBA
:1024F200000E2120DA6EDF50231A272A040E2764E9
:1025020085EF12F087EF12F076EF12F020EE05F071
:102512002050D9262150DA222350DE18D8B494EF65
:1025220012F096EF12F098EF12F0020E266E26507D
:102532001200500E206E000E216E200E0D6E000E47
:102542000E6E020E0F6E220E106E000E116EE1EC78
:1025520013F0200E0D6E000E0E6E020E0F6E220E86
:10256200106E000E116E91EC13F0800E0A6E080EC2
:1025720021EC18F0800E0A6E080E14EC18F0200EF2
:102582000D6E000E0E6E040E0F6E200E106E000EFB
:10259200116E240E126E000E136E0C0ED7EC0AF0A2
:1025A200200E0D6E000E0E6E040E0F6E200E106EBB
:1025B200000E116E240E126E000E136E0C0E90ECB5
:1025C20009F0080E0A6E080E21EC18F0080E0A6EC9
:1025D200080E14EC18F01200959495929290929233
:1025E200958695988C928C94898089828C88AAECA5
:1025F20017F08D0E016E2A0EC9EC14F03E0E016E1C
:102602002B0EC9EC14F01E0E016E2D0EC9EC14F047
:10261200000E016E2C0EC9EC14F0400E016E150E68
:10262200C9EC14F03D0E016E110EC9EC14F079ECF8
:1026320018F05AEC18F08D0E016E2A0E7FEC14F091
:102642003E0E016E2B0E7FEC14F01E0E016E2D0E4F
:102652007FEC14F0000E016E2C0E7FEC14F0400E95
:10266200016E150E7FEC14F03D0E016E110E7FEC23
:1026720014F073EC18F051EC18F01200000E096E11
:10268200000E0A6E000E0B6E000E0C6E0550061048
:1026920007100810D8B450EF13F052EF13F088EF80
:1026A20013F0010E0D6E5CEF13F0D890053606366E
:1026B200073608360D2A08AE61EF13F063EF13F008
:1026C20056EF13F0D89009360A360B360C36055001
:1026D200015C065002580750035808500458D8A00D
:1026E20075EF13F077EF13F080EF13F00550015EF2
:1026F2000650025A0750035A0850045A0980D890CB
:1027020008320732063205320D2E63EF13F009C08C
:1027120001F00AC002F00BC003F00CC004F012007A
:10272200040E0A6E050E14EC18F0800E0A6E0A0EE4
:102732002EEC18F0000E136EABEF13F00DC0D9FFA4
:102742000EC0DAFFDF50016E090E7FEC14F00D4A65
:102752000E2A132A0F50135CD8A0B2EF13F0B4EF75
:1027620013F09FEF13F0030E016E010E7FEC14F0D5
:102772001368050ED3EC10F0126E13061350D8B482
:10278200C5EF13F0C7EF13F0CEEF13F012A4CCEFA6
:1027920013F0CEEF13F0BAEF13F0220ED3EC10F0D9
:1027A20010C0D9FF11C0DAFFDF6E20EE01F0105029
:1027B200D9261150DA22210ED3EC10F0DF6E12006E
:1027C200040E0A6E050E21EC18F0800E0A6E0A0E37
:1027D2003AEC18F0000E136EFBEF13F00DC0D9FFA8
:1027E2000EC0DAFFDF50016E090EC9EC14F00D4A7B
:1027F2000E2A132A0F50135CD8A002EF14F004EF34
:1028020014F0EFEF13F0030E016E010EC9EC14F099
:102812001368050E2FEC11F0126E13061350D8B484
:1028220015EF14F017EF14F01EEF14F012A41CEFC2
:1028320014F01EEF14F00AEF14F0220E2FEC11F038
:1028420010C0D9FF11C0DAFFDF6E20EE01F0105088
:10285200D9261150DA22210E2FEC11F0DF6E120070
:10286200949C948E38C001F039C002F03AC003F053
:102872003BC004F0010E37EC0EF001C013F002C0B1
:1028820014F003C015F004C016F0600E0F6EFE0EB9
:10289200106ECD0E116E480E126E71EC06F00FC066
:1028A20028F010C029F011C02AF012C02BF0000E3F
:1028B2002C6E000E2D6E800E2E6EBF0E2F6E11EC42
:1028C20004F028C03CF029C03DF02AC03EF02BC0E5
:1028D2003FF03CC001F03DC002F03EC003F03FC0FB
:1028E20004F011EC0FF00150AF6E200EAC6E900EA2
:1028F200AB6EF28EF28C9D8A9D881200036E8C92D2
:102902008992035003247E0B046E080E056E04BEEA
:102912008DEF14F091EF14F0026A022A92EF14F094
:10292200026A024602468C500218FB0B02188C6E99
:102932008C82D89004368C9205060550D8A4A4EF58
:1029420014F0A6EF14F088EF14F0080E056E01BE25
:10295200ADEF14F0B1EF14F0026A022AB2EF14F0F4
:10296200026A024602468C500218FB0B02188C6E59
:102972008C82D89001368C9205060550D8A4C4EFFB
:1029820014F0C6EF14F0A8EF14F089828C821200C2
:10299200036E8C928990035003247E0B046E080E02
:1029A200056E04BED7EF14F0DBEF14F0026A022AC0
:1029B200DCEF14F0026A024602468C500218FB0B4E
:1029C20002188C6E8C82D89004368C9205060550C3
:1029D200D8A4EEEF14F0F0EF14F0D2EF14F0080EDA
:1029E200056E01BEF7EF14F0FBEF14F0026A022A43
:1029F200FCEF14F0026A024602468C500218FB0BEE
:102A020002188C6E8C82D89001368C920506055085
:102A1200D8A40EEF15F010EF15F0F2EF14F0898044
:102A22008C8212009EA818EF15F01AEF15F013EF22
:102A320015F0000E096E36EF15F009500524076EE9
:102A4200000E0620086E07C0F6FF08C0F7FFF86AFE
:102A5200070EF76403D00800F55005D0F6CFE1FF6A
:102A6200F7CFE2FFE750AD6E092A05C001F006C0BC
:102A720002F06EEC16F00950076E086A0150075C0E
:102A820002500858D8A048EF15F04AEF15F01EEF93
:102A920015F012000A6E66EF15F00A50BF0F95ECA2
:102AA20016F07FEF15F00A50930F95EC16F07FEFBA
:102AB20015F00A50D30F95EC16F07FEF15F00A507F
:102AC2007F0F95EC16F07FEF15F00750086E096A3C
:102AD2000950000AD8B470EF15F060EF15F00850F5
:102AE200020AD8B44EEF15F0010AD8B454EF15F02B
:102AF200070AD8B45AEF15F060EF15F01200226EF3
:102B0200070E016E0D0E7FEC14F020C0D9FF21C01C
:102B1200DAFF22C0DFFF20C00DF021C00EF0010E4F
:102B22000F6E20C010F021C011F0240E126E000EA4
:102B3200136E0C0E90EC09F0236E2350D8A4A4EF70
:102B420015F0A6EF15F0B0EF15F0100E24182510B1
:102B5200D8B4AEEF15F0B0EF15F0B2EF15F0020EEB
:102B6200236E23501200226E070E016E0D0EC9EC69
:102B720014F020C0D9FF21C0DAFF22C0DFFF20C03D
:102B82000DF021C00EF0010E0F6E20C010F021C01A
:102B920011F0240E126E000E136E0C0ED7EC0AF01A
:102BA200236E2350D8A4D8EF15F0DAEF15F0E4EF36
:102BB20015F0100E24182510D8B4E2EF15F0E4EF4A
:102BC20015F0E6EF15F0020E236E2350120054C0EA
:102BD20058F055C059F0000E0001616F000E606F91
:102BE20006EF16F052C03FF053C040F0580E416E4F
:102BF200000E426E56C043F057C044F04FEC0DF049
:102C02003F50000160274050612358C0F6FF59C071
:102C1200F7FF0800F5500009D8A412EF16F014EFE0
:102C220016F0F3EF15F060C052F061C053F01200DD
:102C3200280EC66E000EC56EC00E016EFC0E026E30
:102C42009B0E036E010E046E0EC012F00FC013F045
:102C520010C014F011C015F0020ED89012361336BF
:102C620014361536E82E2EEF16F012C005F013C0FA
:102C720006F014C007F015C008F03FEC13F0010491
:102C8200C86E000EC76E12005E0E0001DF6F000EEE
:102C9200E06F5AC0E1F05BC0E2F0000EE56F000E9B
:102CA200E46F000EEB6F000EEA6FE10E526E000E43
:102CB200536E5CC054F05DC055F0DF0E566E000ED0
:102CC200576EE8EC15F00001E4515A24D96EE55133
:102CD2005B20DA6E000EDF6E120001C003F002C04C
:102CE20004F076EF16F0014A022A01C0F6FF02C094
:102CF200F7FFF86A070EF76403D00800F55005D015
:102D0200F6CFE1FFF7CFE2FFE7500009D8A48CEF3E
:102D120016F08EEF16F074EF16F00350015C016EA0
:102D220004500258026E1200066E0001F191065024
:102D3200F00B78EC17F00638F00BF00B78EC17F08C
:102D42000604D8B4A7EF16F0A9EF16F0B2EF16F00A
:102D5200020E0618D8A4B0EF16F0B2EF16F0BAEFD2
:102D620016F0120E056E870EE82EFED7052EFCD742
:102D720000F012008C0EF66E300EF76E000EF86E3A
:102D820000EECAF010EE15F00900F5CFEEFFE550A7
:102D9200E150FAE101EE00F0140EEE6AE806FDE100
:102DA2000001F16B00EE60F06A0EEE6AE806FDE1EA
:102DB200000EF86E00011EEF0CF09F0E096EFF0E62
:102DC2000A6E07C00BF008C00CF009500B260A501F
:102DD2000C220C5007E11A0E0B5CD8B0F3EF16F080
:102DE200F5EF16F0FBEF16F05F0E0714076E086A98
:102DF200FFEF16F007C007F008C008F01200000E3F
:102E0200106E000E0F6E11EF17F00EC001F0026A85
:102E12000CC003F00DC004F00BEC10F00F4A102AA6
:102E22000F500A24D96E10500B20DA6EDF500E6E4E
:102E32000E50D8A41FEF17F021EF17F006EF17F08E
:102E420012009F0E036EFF0E046E200E0110056E1F
:102E5200000E0210066E035005260450062206508C
:102E62000AE11A0E055CD8A039EF17F03CEF17F013
:102E7200010E3DEF17F0000E016E026A12009F0E66
:102E8200036EFF0E046E01C005F002C006F003508F
:102E920005260450062206500AE11A0E055CD8A047
:102EA20055EF17F058EF17F0010E59EF17F0000E1B
:102EB200016E026A1200BF0E036EFF0E046E01C0A5
:102EC20005F002C006F00350052604500622065003
:102ED2000AE11A0E055CD8A071EF17F074EF17F033
:102EE200010E75EF17F0000E016E026A1200046EF9
:102EF200000E0001F1B1010E04120450FB0B05ECAF
:102F020018F000D000D000D00450040905EC18F0ED
:102F120000D000D000D00450FB0B05EC18F0E10EFD
:102F2200E82EFED71200026EC7B49AEF17F09CEF9C
:102F320017F095EF17F0C5CF01F01F0E0116D8A4B8
:102F4200A5EF17F0A7EF17F095EF17F002C0C9FF32
:102F520012008C8800D000D000D08C9800D000D015
:102F620000D08C8800D000D000D00F0E016E010E70
:102F7200C9EC14F000D000D000D01200C7B4C4EFE6
:102F820017F0C6EF17F0BFEF17F0C5CF01F01F0E15
:102F92000116D8A4CFEF17F0D1EF17F0BFEF17F05B
:102FA200C5841200C7B4D8EF17F0DAEF17F0D3EFE9
:102FB20017F0C5CF01F01F0E0116D8A4E3EF17F0EA
:102FC200E5EF17F0D3EF17F0C580120028C020F00C
:102FD20029C021F0E6EC11F020EE05F02850D926A8
:102FE2002950DA22000EDF6E120028C020F029C01C
:102FF20021F040EC12F020EE05F02850D92629509D
:10300200DA22000EDF6E1200036ED3EC17F000011D
:10301200F05194EC17F003500001DE1194EC17F01C
:10302200BFEC17F012000C6E0C50D3EC10F00B6ECC
:103032000A50FF0A0B14016E0C507FEC14F01200C0
:103042000C6E0C502FEC11F00B6E0A50FF0A0B1491
:10305200016E0C50C9EC14F012000C6E0C50D3EC43
:1030620010F00B6E0B500A10016E0C507FEC14F036
:1030720012000C6E0C502FEC11F00B6E0B500A105C
:10308200016E0C50C9EC14F0120068656C6C6F0094
:0F30920000000000000000000000000000000827
:1030A200140ED3EC10F0030E0A6E140E2EEC18F070
:1030B2001200140E2FEC11F0030E0A6E140E3AECED
:1030C20018F0120026C020F027C021F0260E80EC56
:1030D20015F0120026C020F027C021F0260EB4EC15
:1030E20015F01200030E0A6E140E14EC18F0120002
:0E30F200030E0A6E140E21EC18F012001200EC
:020000040020DA
:08000000FFFFFFFFFFFFFFFF00
:020000040030CA
:0E000000000C1E1EFF8181FF0FC00FE00F409D
:00000001FF
