:0400000092EF19F072
:1008000000506F733100506F733200506F733300BC
:0D08100050310050320050330025580000D8
:10081E002B50800B346E2B502B24366E2AAE1AEFD3
:10082E0004F01CEF04F01DEF04F036803650D8B4FF
:10083E0023EF04F025EF04F03AEF04F03628D8A4A5
:10084E002BEF04F02DEF04F035EF04F0000E286EC0
:10085E00000E296E000E2A6E000E2B6E2A8E000ED2
:10086E002B6E42EF04F0000E286E000E296E000E65
:10087E002A6E000E2B6E2F50800B356E34503518AD
:10088E00D8B44CEF04F04EEF04F04FEF04F0348C7C
:10089E002F502F24356E2EAE57EF04F059EF04F083
:1008AE005AEF04F035803550D8B460EF04F062EFA3
:1008BE0004F077EF04F03528D8A468EF04F06AEF5F
:1008CE0004F072EF04F0000E2C6E000E2D6E000E72
:1008DE002E6E000E2F6E2E8E000E2F6E7FEF04F0FA
:1008EE00000E2C6E000E2D6E000E2E6E000E2F6E54
:1008FE003650355CD8B086EF04F088EF04F0AFEFD9
:10090E0004F034AC8DEF04F08FEF04F091EF04F0AF
:10091E00800E341A36C037F035C036F037C035F099
:10092E0028C037F02CC028F037C02CF029C037F083
:10093E002DC029F037C02DF02AC037F02EC02AF076
:10094E0037C02EF02BC037F02FC02BF037C02FF052
:10095E00000E376E365035C030F0316A305E000E04
:10096E00315A31BEC4EF04F0315009E11A0E305C39
:10097E00D8A0C4EF04F0C6EF04F0FDEF04F0285049
:10098E0029102A102B10D8A4CFEF04F0D2EF04F0C8
:10099E00010ED3EF04F0000E376E000E286E000E1F
:1009AE00296E000E2A6E000E2B6E35C036F006EF45
:1009BE0005F037A0E5EF04F0E7EF04F0EDEF04F0FB
:1009CE00D89037300109376EEFEF04F0D8903732F8
:1009DE0028A0F4EF04F0F6EF04F0F7EF04F0378EF2
:1009EE002B342B322A3229322832362A3550365CB5
:1009FE00D8A004EF05F006EF05F0E0EF04F034BCEC
:100A0E000BEF05F00DEF05F04DEF05F03650D8A4C5
:100A1E0013EF05F015EF05F01FEF05F0000E286E31
:100A2E00000E296E000E2A6E000E2B6E6EEF06F073
:100A3E002C5028262D5029222E502A222F502B2280
:100A4E002BA02CEF05F02EEF05F0DAEF05F037A016
:100A5E0033EF05F035EF05F03BEF05F0D89037306A
:100A6E000109376E3DEF05F0D890373228A042EFDE
:100A7E0005F044EF05F045EF05F0378E2B342B32A1
:100A8E002A3229322832362ADAEF05F02C50285C29
:100A9E002D5029582E502A582B50800A306E2F5028
:100AAE00800A3058D8B05EEF05F060EF05F08BEF9E
:100ABE0005F028502C5C306E29502D58316E2A507E
:100ACE002E58326E2B502F58336EFF0E3024286E58
:100ADE00FF0E3120296EFF0E32202A6EFF0E3320BC
:100AEE002B6E800E341A376C3750D8A481EF05F078
:100AFE0083EF05F093EF05F0010E2826000E292254
:100B0E002A222B2293EF05F02C50285E2D50295AC5
:100B1E002E502A5A2F502B5A285029102A102B109B
:100B2E00D8A49CEF05F09EEF05F0D3EF05F03750FB
:100B3E00D8A4A4EF05F0A6EF05F0D3EF05F0000E54
:100B4E00286E000E296E000E2A6E000E2B6E6EEFB2
:100B5E0006F0D890283629362A362B3637AEBAEF1D
:100B6E0005F0BCEF05F0BDEF05F0288037A0C2EF11
:100B7E0005F0C4EF05F0C8EF05F0D8803736CAEFA0
:100B8E0005F0D89037363650D8B4D0EF05F0D2EF06
:100B9E0005F0D3EF05F036062AAED8EF05F0DAEF02
:100BAE0005F0B0EF05F0000E356E37AEE1EF05F053
:100BBE00E3EF05F0FBEF05F037C030F07F0E301697
:100BCE00D8B4ECEF05F0EEEF05F0F2EF05F0010E04
:100BDE00356EFBEF05F028A0F7EF05F0F9EF05F005
:100BEE00FBEF05F0EEEF05F03550D8B401EF06F04F
:100BFE0003EF06F02EEF06F0010E2826000E292236
:100C0E002A222B222BA00EEF06F010EF06F02EEF6D
:100C1E0006F028C030F029C031F02AC032F02BC0C7
:100C2E0033F03334333232323132303230C028F096
:100C3E0031C029F032C02AF033C02BF03628D8B498
:100C4E002BEF06F02DEF06F02EEF06F0362A3628A3
:100C5E00D8B434EF06F036EF06F03EEF06F036501D
:100C6E00D8A43CEF06F03EEF06F050EF06F0000E73
:100C7E00286E000E296E000E2A6E000E2B6E365058
:100C8E00D8A44CEF06F04EEF06F050EF06F0000E33
:100C9E00346E36A055EF06F057EF06F05AEF06F019
:100CAE002A8E5BEF06F02A9ED89036302B6E34AE2D
:100CBE0063EF06F065EF06F066EF06F02B8E28C0A8
:100CCE0028F029C029F02AC02AF02BC02BF01200E0
:100CDE001250800B1F6E12501224266E11AE7AEF38
:100CEE0006F07CEF06F07DEF06F026802650D8B495
:100CFE0083EF06F085EF06F09AEF06F02628D8A4CB
:100D0E008BEF06F08DEF06F095EF06F0000E0F6EEE
:100D1E00000E106E000E116E000E126E118E000E71
:100D2E00126EA2EF06F0000E0F6E000E106E000E89
:100D3E00116E000E126E1650800B1F1A16501624CE
:100D4E00276E15AEADEF06F0AFEF06F0B0EF06F082
:100D5E0027802750D8B4B6EF06F0B8EF06F0CDEFE7
:100D6E0006F02728D8A4BEEF06F0C0EF06F0C8EFB5
:100D7E0006F0000E136E000E146E000E156E000EB1
:100D8E00166E158E000E166ED5EF06F0000E136E53
:100D9E00000E146E000E156E000E166E135014100B
:100DAE0015101610D8A4DEEF06F0E0EF06F0F8EFFF
:100DBE0006F0000E0F6E000E106E000E116E000E7D
:100DCE00126E800E11127F0E12121F5012120FC0D1
:100DDE000FF010C010F011C011F012C012F03BEF66
:100DEE0008F02650D8A4FEEF06F000EF07F00AEF49
:100DFE0007F0000E0F6E000E106E000E116E000E3C
:100E0E00126E3BEF08F0275026C017F0186A175ED7
:100E1E00000E185A7F0E1724206E000E1820216E19
:100E2E000FC01BF010C01CF011C01DF012C01EF040
:100E3E00000E0F6E000E106E000E116E000E126E72
:100E4E00000E226E000E236E000E246E000E256E16
:100E5E00000E276E6BEF07F02750D8B439EF07F06E
:100E6E003BEF07F052EF07F0D8901B361C361D36BD
:100E7E001E36D8900F3610361136123625AE4AEF82
:100E8E0007F04CEF07F04DEF07F00F80D8902236A9
:100E9E0023362436253613501B5C14501C5815501F
:100EAE001D5816501E58D8A05FEF07F061EF07F0DF
:100EBE006AEF07F0258C13501B5E14501C5A155008
:100ECE001D5A16501E5A272A190E276471EF07F065
:100EDE0073EF07F033EF07F01B501C101D101E10A0
:100EEE00D8B47CEF07F07EEF07F096EF07F0228084
:100EFE0096EF07F0D8900F3610361136123625AE13
:100F0E008BEF07F08DEF07F08EEF07F00F80D89084
:100F1E0022362336243625362006D8A0210611AED9
:100F2E009BEF07F09DEF07F081EF07F0000E276EA5
:100F3E0025AEA4EF07F0A6EF07F0CAEF07F0FF0EFD
:100F4E002214176EFF0E2314186EFF0E2414196E42
:100F5E007F0E25141A6E1750181019101A10D8B4C7
:100F6E00BBEF07F0BDEF07F0C1EF07F0010E276EE4
:100F7E00CAEF07F00FA0C6EF07F0C8EF07F0CAEFF1
:100F8E0007F0BDEF07F02750D8B4D0EF07F0D2EF3F
:100F9E0007F0F6EF07F0010E0F26000E10221122B9
:100FAE00122212A0DDEF07F0DFEF07F0F6EF07F0E9
:100FBE000FC017F010C018F011C019F012C01AF0BF
:100FCE001A341A3219321832173217C00FF018C0ED
:100FDE0010F019C011F01AC012F0204A212A21BEB9
:100FEE0001EF08F0215008E12028D8A001EF08F009
:100FFE0003EF08F00EEF08F0000E216E2068000ED1
:10100E000F6E000E106E000E116E000E126E21BECF
:10101E001BEF08F0215006E12004D8B019EF08F0BC
:10102E001BEF08F029EF08F0000E216E000E206E67
:10103E00000E0F6E000E106E000E116E000E126E70
:10104E00000E1F6E20C026F026A030EF08F032EF03
:10105E0008F035EF08F0118E36EF08F0119ED8909B
:10106E002630126EECEF06F01200A00E0E6E860EFB
:10107E000F6E010E106E000E116E42EC1AF04E0E37
:10108E0072EC11F0E9EC11F0800E386E250E396E0F
:10109E00000E3A6E000E3B6EE9EC16F0120E0001D9
:1010AE00EE6F200EED6F0F0EE82EFED7ED2FFCD754
:1010BE00EE2FFAD700D0DF0E266E000E276E94ECC0
:1010CE001CF0B50E286E000E296EF6EC1BF0B50E58
:1010DE00206E000E216E4DEC15F000016C6FDE0ED1
:1010EE00266E000E276E8CEC1CF0A10E286E000EE4
:1010FE00296EE7EC1BF0A10E206E000E216EF3ECB4
:10110E0014F000016B6FDD0E266E000E276E84EC60
:10111E001CF08D0E286E000E296ED8EC1BF08D0E75
:10112E00206E000E216E99EC14F000016A6FB50E60
:10113E00016E000E026E97EC1AF001040210D8B484
:10114E00ABEF08F0ADEF08F0CBEF08F0A10E016E9B
:10115E00000E026E97EC1AF001040210D8B4BAEF2A
:10116E0008F0BCEF08F0CBEF08F08D0E016E000E0C
:10117E00026E97EC1AF001040210D8A4C9EF08F021
:10118E00CBEF08F0CEEF08F0010EBEEC1AF0020E17
:10119E00076E010E90EC18F000016C51D8A4DAEF36
:1011AE0008F0DCEF08F02AEF09F0100E056E080EBD
:1011BE00066E58EC18F0000E0001EF6FC90E5A6E55
:1011CE00000E5B6E190E5C6E080E5D6EB50EEF2591
:1011DE00D96EDA6A000EDA22DF50ED6FED515E6ED7
:1011EE005F6A6EEC1AF0C90E056E000E066E3EECCE
:1011FE0014F0C90E056E000E066E58EC18F00001C4
:10120E00EF2B040EEF650EEF09F010EF09F0E5EF8E
:10121E0008F0010E076E010E90EC18F0010E056E2F
:10122E00080E066E3EEC14F0120E0001EE6F200E4C
:10123E00ED6F0F0EE82EFED7ED2FFCD7EE2FFAD75F
:10124E0000D039EF09F0020E0001EE6FB70EED6F10
:10125E004C0EE82EFED7ED2FFCD7EE2FFAD700F06E
:10126E0016EC1AF0020E076E010E90EC18F000014B
:10127E006B51D8A445EF09F047EF09F095EF09F04F
:10128E00130E056E080E066E58EC18F0000E0001D7
:10129E00F06FC90E5A6E000E5B6E190E5C6E080E64
:1012AE005D6EA10EF025D96EDA6A000EDA22DF50DD
:1012BE00ED6FED515E6E5F6A6EEC1AF0C90E056E43
:1012CE00000E066E3EEC14F0C90E056E000E066E94
:1012DE0058EC18F00001F02B040EF06579EF09F0D0
:1012EE007BEF09F050EF09F0010E076E010E90EC46
:1012FE0018F0060E056E080E066E3EEC14F0120E79
:10130E000001EE6F200EED6F0F0EE82EFED7ED2FC3
:10131E00FCD7EE2FFAD700D0A4EF09F0020E000191
:10132E00EE6FB70EED6F4C0EE82EFED7ED2FFCD7FD
:10133E00EE2FFAD700F0EAEC19F0020E076E010E4E
:10134E0090EC18F000016A51D8A4B0EF09F0B2EF9A
:10135E0009F0F3EF09F0160E056E080E066E58EC46
:10136E0018F0000E0001F16FC90E5A6E000E5B6E82
:10137E00190E5C6E080E5D6E8D0EF125D96EDA6A51
:10138E00000EDA22DF50ED6FED515E6E5F6A6EEC8D
:10139E001AF0C90E056E000E066E3EEC14F0C90E64
:1013AE00056E000E066E58EC18F00001F12B040EBF
:1013BE00F165E4EF09F0E6EF09F0BBEF09F0010E7D
:1013CE00076E010E90EC18F00B0E056E080E066EF1
:1013DE003EEC14F055EF08F0020E0001EE6FB70E62
:1013EE00ED6F4C0EE82EFED7ED2FFCD7EE2FFAD771
:1013FE0000F0BEEC19F062EF08F000EF00F0000113
:10140E0065BF0CEF0AF00EEF0AF00FEF0AF06693CD
:10141E0065BF1CEF0AF0655106E16405D8B01AEFFE
:10142E000AF01CEF0AF022EF0AF0000E306E010EE9
:10143E002F6E26EF0AF064C02FF065C030F062C048
:10144E0031F063C032F066A92FEF0AF031EF0AF0E7
:10145E0035EF0AF0FE0E3126FF0E32221EC033F09B
:10146E001FC034F020C035F021C036F022C037F056
:10147E0023C038F024C039F025C03AF0000E3C6E7F
:10148E001F0E3B6E000E8C6FE6EF0AF03B06D8A0E7
:10149E003C060F0E33143D6E3E6A3EBE60EF0AF000
:1014AE003E5009E10A0E3D5CD8A060EF0AF062EFF3
:1014BE000AF06AEF0AF0570E3D243D6E000E3E20F4
:1014CE003E6E70EF0AF0300E3D243D6E000E3E2053
:1014DE003E6EBF0E276EFF0E286E2650296E2A6AAC
:1014EE002750292628502A222A5007E11A0E295C55
:1014FE00D8B084EF0AF086EF0AF0A9EF0AF09F0E3B
:10150E00276EFF0E286E200E3D10296E000E3E1027
:10151E002A6E2750292628502A222A5007E11A0E11
:10152E00295CD8B09DEF0AF09FEF0AF0A9EF0AF000
:10153E003DC007F03EC008F0E4EC1AF007C03DF0E5
:10154E0008C03EF06D0E3B24D96E000E3C20DA6EC4
:10155E003DC0DFFF2F06D8A030063106D8A03206D8
:10156E0033C027F034C028F035C029F036C02AF039
:10157E0037C02BF038C02CF039C02DF03AC02EF009
:10158E00050ED3EF0AF0D8902E322D322C322B329C
:10159E002A32293228322732E82ECAEF0AF027C023
:1015AE0033F028C034F029C035F02AC036F02BC0F5
:1015BE0037F02CC038F02DC039F02EC03AF03CBEBA
:1015CE00F2EF0AF03C5009E1020E3B5CD8A0F2EFBC
:1015DE000AF0F4EF0AF025EF0BF03350341035100B
:1015EE0036103710381039103A10D8A401EF0BF01E
:1015FE0003EF0BF04DEF0AF030BE10EF0BF0305052
:10160E0006E12F04D8B00EEF0BF010EF0BF04DEFFC
:10161E000AF032BE1BEF0BF0325008E13104D8A0B5
:10162E001BEF0BF01DEF0BF025EF0BF0000166B377
:10163E0023EF0BF025EF0BF04DEF0AF0000166A93A
:10164E002BEF0BF02DEF0BF043EF0BF03B06D8A07A
:10165E003C066D0E3B24D96E000E3C20DA6E26C081
:10166E00DFFF3B06D8A03C066D0E3B24D96E000E64
:10167E003C20DA6E300EDF6E1CC011F01DC012F071
:10168E006D0E3B24136E000E3C20146E31C015F00F
:10169E0032C016F0C4EC12F011C01CF012C01DF0D6
:1016AE0012001C6E020E196E000E1B6E000E186ECE
:1016BE006DEF0BF0120E1B6E100E186E82EF0BF00C
:1016CE00770E1B6E300E186E82EF0BF01C50146EE0
:1016DE00156A1550000AD8B477EF0BF082EF0BF0B5
:1016EE0014500C0AD8B467EF0BF0020AD8B461EFAD
:1016FE000BF082EF0BF01B508009016E020E37ECDF
:10170E0017F0800E0A6E040E14EC1CF0800E0A6E9A
:10171E000A0E3BEC1CF0000E016E010E37EC17F0BA
:10172E00000E1E6E000E1D6EAAEF0BF01D500D2446
:10173E00D96E1E500E20DA6EDF50016E090E37EC98
:10174E0017F01D4A1E2A0F50146E156A14501D5C98
:10175E0015501E58D8A0B6EF0BF0B8EF0BF09DEF5A
:10176E000BF01CC001F0010E37EC17F00C0E1C181C
:10177E00D8A4C4EF0BF0C6EF0BF0CBEF0BF0800E3E
:10178E000A6E0D0E3BEC1CF01D681E68040E27EC55
:10179E0013F01F6E1D06D8A01E061D501E10D8B4C5
:1017AE00DBEF0BF0DDEF0BF0EEEF0BF01FB0E2EF27
:1017BE000BF0E4EF0BF0EEEF0BF01F5018140009D6
:1017CE00D8B4ECEF0BF0EEEF0BF0CDEF0BF0800E8C
:1017DE000A6E0D0E14EC1CF01D501E10D8B4FAEF4C
:1017EE000BF0FCEF0BF09DEF0CF0060E27EC13F058
:1017FE00146E1B0E1416D8A407EF0CF009EF0CF0A4
:10180E009BEF0CF0000E196E1F501B14146E14A0DB
:10181E0013EF0CF015EF0CF017EF0CF0010E196E24
:10182E000C0E1C18D8A41EEF0CF020EF0CF09DEF40
:10183E000CF00A0E27EC13F01F6E0C0E27EC13F0B3
:10184E00070B1A6E1A50D8B42FEF0CF031EF0CF0C4
:10185E0053EF0CF0F80E146EFF0E156E1A501FC0DB
:10186E0016F0176AD89016361736D89016361736E1
:10187E00D890163617361626000E17221450162636
:10188E001550172212C0D9FF13C0DAFF16C0DEFFA3
:10189E0017C0DDFF5DEF0CF01F50080D12C0D9FF11
:1018AE0013C0DAFFF3CFDEFFF4CFDDFF1F50D8A455
:1018BE0063EF0CF065EF0CF067EF0CF0010E1F6E8E
:1018CE00100E1F646DEF0CF06FEF0CF071EF0CF05B
:1018DE00100E1F6E000E1E6E000E1D6E83EF0CF0AE
:1018EE001D501024D96E1E501120DA6E090E27ECF1
:1018FE0013F0DF6E1D4A1E2A1F50146E156A145007
:10190E001D5C15501E58D8A08FEF0CF091EF0CF007
:10191E0077EF0CF01D501024D96E1E501120DA6E88
:10192E00000EDF6E9DEF0CF0020E196E19501200B4
:10193E001C6E020E196E000E1B6E000E186EB4EFAA
:10194E000CF0120E1B6E100E186EC9EF0CF0770E07
:10195E001B6E300E186EC9EF0CF01C50146E156A0B
:10196E001550000AD8B4BEEF0CF0C9EF0CF01450AD
:10197E000C0AD8B4AEEF0CF0020AD8B4A8EF0CF0F3
:10198E00C9EF0CF01B508009016E020E83EC17F0AC
:10199E00800E0A6E040E21EC1CF0800E0A6E0A0EEA
:1019AE0047EC1CF0000E016E010E83EC17F0000EDA
:1019BE001E6E000E1D6EF1EF0CF01D500D24D96E33
:1019CE001E500E20DA6EDF50016E090E83EC17F0FA
:1019DE001D4A1E2A0F50146E156A14501D5C1550A8
:1019EE001E58D8A0FDEF0CF0FFEF0CF0E4EF0CF05A
:1019FE001CC001F0010E83EC17F00C0E1C18D8A4BD
:101A0E000BEF0DF00DEF0DF012EF0DF0800E0A6ED4
:101A1E000D0E47EC1CF01D681E68040E84EC13F0CE
:101A2E001F6E1D06D8A01E061D501E10D8B422EF24
:101A3E000DF024EF0DF035EF0DF01FB029EF0DF086
:101A4E002BEF0DF035EF0DF01F5018140009D8B420
:101A5E0033EF0DF035EF0DF014EF0DF0800E0A6E32
:101A6E000D0E21EC1CF01D501E10D8B441EF0DF0E0
:101A7E0043EF0DF0E4EF0DF0060E84EC13F0146E50
:101A8E001B0E1416D8A44EEF0DF050EF0DF0E2EF32
:101A9E000DF0000E196E1F501B14146E14A05AEF89
:101AAE000DF05CEF0DF05EEF0DF0010E196E0C0EE9
:101ABE001C18D8A465EF0DF067EF0DF0E4EF0DF0F4
:101ACE000A0E84EC13F01F6E0C0E84EC13F0070B51
:101ADE001A6E1A50D8B476EF0DF078EF0DF09AEF2B
:101AEE000DF0F80E146EFF0E156E1A501FC016F084
:101AFE00176AD89016361736D89016361736D890ED
:101B0E00163617361626000E1722145016261550A6
:101B1E00172212C0D9FF13C0DAFF16C0DEFF17C09E
:101B2E00DDFFA4EF0DF01F50080D12C0D9FF13C03A
:101B3E00DAFFF3CFDEFFF4CFDDFF1F50D8A4AAEFFC
:101B4E000DF0ACEF0DF0AEEF0DF0010E1F6E100E9E
:101B5E001F64B4EF0DF0B6EF0DF0B8EF0DF0100EF0
:101B6E001F6E000E1E6E000E1D6ECAEF0DF01D5084
:101B7E001024D96E1E501120DA6E090E84EC13F06B
:101B8E00DF6E1D4A1E2A1F50146E156A14501D5CFE
:101B9E0015501E58D8A0D6EF0DF0D8EF0DF0BEEFB1
:101BAE000DF01D501024D96E1E501120DA6E000E4D
:101BBE00DF6EE4EF0DF0020E196E195012001C6E5E
:101BCE00020E196E000E1B6E000E186EFBEF0DF05E
:101BDE00120E1B6E100E186E10EF0EF0770E1B6E9F
:101BEE00300E186E10EF0EF01C50146E156A155054
:101BFE00000AD8B405EF0EF010EF0EF014500C0AD8
:101C0E00D8B4F5EF0DF0020AD8B4EFEF0DF010EFE7
:101C1E000EF01B508009016E020ECFEC17F0800EF5
:101C2E000A6E040E2EEC1CF0800E0A6E0A0E53EC99
:101C3E001CF0000E016E010ECFEC17F0000E1E6EA2
:101C4E00000E1D6E38EF0EF01D500D24D96E1E5075
:101C5E000E20DA6EDF50016E090ECFEC17F01D4A22
:101C6E001E2A0F50146E156A14501D5C15501E5806
:101C7E00D8A044EF0EF046EF0EF02BEF0EF01CC086
:101C8E0001F0010ECFEC17F00C0E1C18D8A452EF79
:101C9E000EF054EF0EF059EF0EF0800E0A6E0D0E90
:101CAE0053EC1CF01D681E68040EE1EC13F01F6E61
:101CBE001D06D8A01E061D501E10D8B469EF0EF0DA
:101CCE006BEF0EF07CEF0EF01FB070EF0EF072EFB8
:101CDE000EF07CEF0EF01F5018140009D8B47AEFF6
:101CEE000EF07CEF0EF05BEF0EF0800E0A6E0D0E16
:101CFE002EEC1CF01D501E10D8B488EF0EF08AEF9B
:101D0E000EF02BEF0FF0060EE1EC13F0146E1B0E1F
:101D1E001416D8A495EF0EF097EF0EF029EF0FF0F2
:101D2E00000E196E1F501B14146E14A0A1EF0EF0AE
:101D3E00A3EF0EF0A5EF0EF0010E196E0C0E1C188F
:101D4E00D8A4ACEF0EF0AEEF0EF02BEF0FF00A0EA4
:101D5E00E1EC13F01F6E0C0EE1EC13F0070B1A6E94
:101D6E001A50D8B4BDEF0EF0BFEF0EF0E1EF0EF04B
:101D7E00F80E146EFF0E156E1A501FC016F0176A6D
:101D8E00D89016361736D89016361736D89016368F
:101D9E0017361626000E1722145016261550172227
:101DAE0012C0D9FF13C0DAFF16C0DEFF17C0DDFF69
:101DBE00EBEF0EF01F50080D12C0D9FF13C0DAFF63
:101DCE00F3CFDEFFF4CFDDFF1F50D8A4F1EF0EF0FE
:101DDE00F3EF0EF0F5EF0EF0010E1F6E100E1F64F6
:101DEE00FBEF0EF0FDEF0EF0FFEF0EF0100E1F6E7C
:101DFE00000E1E6E000E1D6E11EF0FF01D50102402
:101E0E00D96E1E501120DA6E090EE1EC13F0DF6E62
:101E1E001D4A1E2A1F50146E156A14501D5C155053
:101E2E001E58D8A01DEF0FF01FEF0FF005EF0FF0AB
:101E3E001D501024D96E1E501120DA6E000EDF6E6A
:101E4E002BEF0FF0020E196E1950120041C0D9FF80
:101E5E0042C0DAFFDECFF6FFDDCFF7FF0800F55008
:101E6E00250AD8A43DEF0FF03FEF0FF0F9EF0FF07A
:101E7E0041C0D9FF42C0DAFFDE2A000EDD22000E7D
:101E8E000001636F000E626F62C066F063C067F0A0
:101E9E006469656941C0D9FF42C0DAFFDECFF6FF43
:101EAE00DDCFF7FF0800F550780AD8B461EF0FF0D8
:101EBE0063EF0FF075EF0FF041C0D9FF42C0DAFFAC
:101ECE00DECFF6FFDDCFF7FF0800F550580AD8A495
:101EDE0073EF0FF075EF0FF0C3EF0FF041C0D9FFA6
:101EEE0042C0DAFFDECFF6FFDDCFF7FF0800F5CFF9
:101EFE0051F041C0D9FF42C0DAFFDE2A000EDD22CA
:101F0E0043C0D9FF44C0DAFFDFCF45F0020EDE2614
:101F1E00DFCF46F0000EDD2245C0D9FF46C0DAFF06
:101F2E00DECF47F0DDCF48F047C049F048C04AF059
:101F3E004B6A4C6A4D6A4E6A4F6A506A3FC01CF03B
:101F4E0040C01DF049C01EF04AC01FF04BC020F02B
:101F5E004CC021F04DC022F04EC023F04FC024F0F3
:101F6E0050C025F051C026F006EC0AF01CC03FF020
:101F7E001DC040F014EF10F041C0D9FF42C0DAFF8F
:101F8E00DECFF6FFDDCFF7FF0800F550250AD8A407
:101F9E00D3EF0FF0D5EF0FF0ECEF0FF041C0D9FFFC
:101FAE0042C0DAFFDE2A000EDD22000E026E250E82
:101FBE00016E3FC003F040C004F05FEC12F0000E63
:101FCE00406E010E3F6E14EF10F041C0D9FF42C0BB
:101FDE00DAFFDE2A000EDD22000E406E000E3F6E8E
:101FEE0014EF10F041C0D9FF42C0DAFFDECFF6FF8A
:101FFE00DDCFF7FF0800F550016E026A3FC003F017
:10200E0040C004F05FEC12F041C0D9FF42C0DAFFCD
:10201E00DE2A000EDD22E6EF0FF01200096E0950E7
:10202E00D8B41CEF10F01EEF10F040EF10F004BE0D
:10203E0025EF10F023EF10F040EF10F001C005F087
:10204E0002C006F003C007F004C008F0051E061E0D
:10205E00071E081E052A000E06220722082205C0AA
:10206E000BF006C00CF007C00DF008C00EF048EFE4
:10207E0010F001C00BF002C00CF003C00DF004C054
:10208E000EF00150021003100410D8A451EF10F0FE
:10209E0053EF10F05DEF10F0000E016E000E026EA9
:1020AE00000E036E000E046EEEEF10F0960E0A6E2A
:1020BE0067EF10F00A2AD8900E320D320C320B3226
:1020CE00000E0B14056E000E0C14066E000E0D1491
:1020DE00076EFE0E0E14086E05500610071008103F
:1020EE00D8A47CEF10F07EEF10F061EF10F08CEFC3
:1020FE0010F00A2A010E0B26000E0C220D220E22C3
:10210E00D8900E320D320C320B32000E0B14056EBF
:10211E00000E0C14066E000E0D14076EFF0E0E143C
:10212E00086E0550061007100810D8A4A1EF10F085
:10213E00A3EF10F080EF10F0ABEF10F00A06D8907E
:10214E000B360C360D360E360DBEB0EF10F0B2EF6C
:10215E0010F0BAEF10F0020E0A60B8EF10F0BAEFFE
:10216E0010F0A5EF10F00AB0BFEF10F0C1EF10F0B5
:10217E00C2EF10F00D9ED8900A320AC005F0066A22
:10218E00076A086A05C008F0076A066A056A0550FC
:10219E000B1206500C1207500D1208500E12095059
:1021AE00D8B4DCEF10F0DEEF10F0E6EF10F004BE66
:1021BE00E5EF10F0E3EF10F0E6EF10F00E8E0BC02F
:1021CE0001F00CC002F00DC003F00EC004F01200BE
:1021DE00033404340A6E0A50D8A4F8EF10F0FAEF64
:1021EE0010F004EF11F0000E016E000E026E000EE4
:1021FE00036E000E046E71EF11F001C005F002C007
:10220E0006F003C007F004C008F0200E14EF11F022
:10221E00D8900832073206320532E82E0FEF11F051
:10222E000550096E038EFF0E0116FF0E0216FF0EED
:10223E000316000E0416960E0A5E0ABE2BEF11F060
:10224E0029EF11F041EF11F00A50800A970FD8B024
:10225E0033EF11F035EF11F037EF11F0FAEF10F018
:10226E00D89004320332023201320A3E37EF11F0B7
:10227E0059EF11F01F0E0A6447EF11F049EF11F0FC
:10228E0051EF11F0FAEF10F0D89001360236033606
:10229E0004360A060A50D8A457EF11F059EF11F080
:1022AE004BEF11F00950D8B45FEF11F061EF11F060
:1022BE0069EF11F0041E031E021E016C000E0222B5
:1022CE000322042201C001F002C002F003C003F099
:1022DE0004C004F01200096E09C0F2F0000E05EC05
:1022EE001CF0020E086E5F0E076EA30EE82EFED7D0
:1022FE00072EFCD7082EFAD700F0030EBEEC1AF00C
:10230E002C0E076ED40EE82EFED7072EFCD7030E2A
:10231E00BEEC1AF02C0E076ED40EE82EFED7072E4A
:10232E00FCD7030EBEEC1AF02C0E076ED40EE82E60
:10233E00FED7072EFCD7020EBEEC1AF02C0E076E3F
:10234E00D40EE82EFED7072EFCD7280EBEEC1AF0C0
:10235E00020E086EB70E076E4C0EE82EFED7072E35
:10236E00FCD7082EFAD700D00C0EBEEC1AF0020ED7
:10237E00086EB70E076E4C0EE82EFED7072EFCD752
:10238E00082EFAD700D0010EBEEC1AF0020E086E1F
:10239E00B70E076E4C0EE82EFED7072EFCD7082E72
:1023AE00FAD700D0060EBEEC1AF0020E086EB70E6B
:1023BE00076E4C0EE82EFED7072EFCD7082EFAD746
:1023CE0000D0120095969592929092929294958446
:1023DE0095988C928C968980898289848C881BEC46
:1023EE0018F08D0E016E2A0ECFEC17F03E0E016E18
:1023FE002B0ECFEC17F01E0E016E2D0ECFEC17F03C
:10240E00000E016E2C0ECFEC17F0400E016E150E65
:10241E00CFEC17F03D0E016E110ECFEC17F0A8ECBD
:10242E001CF07BEC1CF08D0E016E2A0E83EC17F067
:10243E003E0E016E2B0E83EC17F01E0E016E2D0E4E
:10244E0083EC17F0000E016E2C0E83EC17F0400E8D
:10245E00016E150E83EC17F03D0E016E110E83EC1E
:10246E0017F0A2EC1CF072EC1CF08D0E016E2A0E11
:10247E0037EC17F03E0E016E2B0E37EC17F01E0EDA
:10248E00016E2D0E37EC17F0000E016E2C0E37EC90
:10249E0017F0400E016E150E37EC17F03D0E016E63
:1024AE00110E37EC17F09CEC1CF069EC1CF01200CE
:1024BE0003500410D8B466EF12F068EF12F071EF0B
:1024CE0012F003500410D8A46FEF12F071EF12F057
:1024DE0076EF12F00150AEEC1CF0C3EF12F020EECE
:1024EE0009F00350D9260450DA22DE50DE10D8B49B
:1024FE0083EF12F085EF12F0A0EF12F020EE09F04C
:10250E000350D9260450DA2210EE03F00350E126D0
:10251E000450E222DE50E65CE650800A096EDE5080
:10252E00800A0958D8B09EEF12F0A0EF12F0C3EF58
:10253E0012F020EE03F00350D9260450DA22DECF3B
:10254E0005F0DDCF06F003C0D9FF04C0DAFFDECF01
:10255E0007F0DDCF08F005500724D96E065008208D
:10256E00DA6E01C0DFFF20EE03F00350D9260450CF
:10257E00DA22DE2A000EDD221200000166A1CAEF69
:10258E0012F0CCEF12F0D6EF12F013C00AF014C016
:10259E000BF011C00CF012C00DF006EC1BF016BEC5
:1025AE00DBEF12F0DDEF12F0E3EF12F015C01AF0D0
:1025BE0016C01BF0E7EF12F0000E1B6E000E1A6E27
:1025CE00000E196E000E186EF9EF12F0000E026E6C
:1025DE00200E016E11C003F012C004F05FEC12F079
:1025EE00184A192A1A50185C1950800A176E1B5077
:1025FE00800A1758D8A006EF13F008EF13F0EDEF8E
:10260E0012F0000166B10EEF13F010EF13F01AEF97
:10261E0013F013C00AF014C00BF011C00CF012C06E
:10262E000DF006EC1BF013C001F014C002F097EC95
:10263E001AF01A500124116E1B500220126E120055
:10264E00036E000E076E000E066E8C928994035078
:10265E0003247E0B016E026A800E0110046E02507E
:10266E00056E000E096E080E086E04BE41EF13F0E3
:10267E0045EF13F0016A012A46EF13F0016A014695
:10268E00014601468C500118F70B01188C6E8C8296
:10269E00D890043605368C920806D8A00906085044
:1026AE000910D8A45DEF13F05FEF13F03CEF13F0B9
:1026BE00000E096E080E086E8C82D890063607360C
:1026CE0083B46CEF13F070EF13F0016A012A71EF0F
:1026DE0013F0016A015006128C920806D8A0090662
:1026EE0008500910D8A47EEF13F080EF13F063EFBB
:1026FE0013F089848C8206501200036E000E076E52
:10270E00000E066E8C928992035003247E0B016E8E
:10271E00026A800E0110046E0250056E000E096EE4
:10272E00080E086E04BE9EEF13F0A2EF13F0016ABE
:10273E00012AA3EF13F0016A0146014601468C50AF
:10274E000118F70B01188C6E8C82D8900436053662
:10275E008C920806D8A0090608500910D8A4BAEF22
:10276E0013F0BCEF13F099EF13F0000E096E080E84
:10277E00086E8C82D8900636073683B4C9EF13F0F4
:10278E00CDEF13F0016A012ACEEF13F0016A01506A
:10279E0006128C920806D8A0090608500910D8A473
:1027AE00DBEF13F0DDEF13F0C0EF13F089828C82B4
:1027BE0006501200036E000E076E000E066E8C920F
:1027CE008990035003247E0B016E026A800E011065
:1027DE00046E0250056E000E096E080E086E04BEE1
:1027EE00FBEF13F0FFEF13F0016A012A00EF14F074
:1027FE00016A0146014601468C500118F70B01187B
:10280E008C6E8C82D890043605368C920806D8A031
:10281E00090608500910D8A417EF14F019EF14F098
:10282E00F6EF13F0000E096E080E086E8C82D8902B
:10283E000636073683B426EF14F02AEF14F0016A39
:10284E00012A2BEF14F0016A015006128C92080631
:10285E00D8A0090608500910D8A438EF14F03AEFA2
:10286E0014F01DEF14F089808C8206501200000EB9
:10287E000A6E0001F3817AEF14F00A500524076EF8
:10288E00000E0620086E07C0F6FF08C0F7FFF86AB4
:10289E00070EF76403D00800F55005D0F6CFE1FF20
:1028AE00F7CFE2FFE750F00B7EEC1BF00A50052449
:1028BE00076E000E0620086E07C0F6FF08C0F7FF71
:1028CE00F86A070EF76403D00800F55005D0F6CF6E
:1028DE00E1FFF7CFE2FFE750096E0938F00BF00B7E
:1028EE007EEC1BF00A2A0A500524076E000E062005
:1028FE00086E07C0F6FF08C0F7FFF86A070EF76408
:10290E0003D00800F55005D0F6CFE1FFF7CFE2FF78
:10291E00E7500009D8A496EF14F098EF14F044EFA6
:10292E0014F01200000E236E000E016E0D0E37EC29
:10293E0017F020C0D9FF21C0DAFF930EDF6E20EE14
:10294E0001F02050D9262150DA22200EDF6E080E1B
:10295E000A6E080E14EC1CF020C00DF021C00EF013
:10296E00020E0F6E20C010F021C011F0240E126E58
:10297E00000E136E0C0E58EC0BF0266E2650D8A4DB
:10298E00CBEF14F0CDEF14F0F1EF14F0000E276E34
:10299E0027502024D96E000E2120DA6EDF50231A24
:1029AE00272A040E2764DEEF14F0E0EF14F0CFEFC9
:1029BE0014F020EE05F02050D9262150DA222350B3
:1029CE00DE18D8B4EDEF14F0EFEF14F0F1EF14F0D1
:1029DE00020E266E26501200000E236E000E016EA1
:1029EE000D0E83EC17F020C0D9FF21C0DAFF930E35
:1029FE00DF6E20EE01F02050D9262150DA22200E73
:102A0E00DF6E080E0A6E080E21EC1CF020C00DF0D1
:102A1E0021C00EF0020E0F6E20C010F021C011F07A
:102A2E00240E126E000E136E0C0E9FEC0CF0266E22
:102A3E002650D8A425EF15F027EF15F04BEF15F023
:102A4E00000E276E27502024D96E000E2120DA6E3C
:102A5E00DF50231A272A040E276438EF15F03AEFB9
:102A6E0015F029EF15F020EE05F02050D926215053
:102A7E00DA222350DE18D8B447EF15F049EF15F0DF
:102A8E004BEF15F0020E266E26501200000E236E2E
:102A9E00000E016E0D0ECFEC17F020C0D9FF21C035
:102AAE00DAFF930EDF6E20EE01F02050D926215072
:102ABE00DA22200EDF6E080E0A6E080E2EEC1CF0C7
:102ACE0020C00DF021C00EF0020E0F6E20C010F0CF
:102ADE0021C011F0240E126E000E136E0C0EE6ECD9
:102AEE000DF0266E2650D8A47FEF15F081EF15F06D
:102AFE00A5EF15F0000E276E27502024D96E000E7C
:102B0E002120DA6EDF50231A272A040E276492EF53
:102B1E0015F094EF15F083EF15F020EE05F0205030
:102B2E00D9262150DA222350DE18D8B4A1EF15F0A1
:102B3E00A3EF15F0A5EF15F0020E266E265012002B
:102B4E00000E096E000E0A6E000E0B6E000E0C6E5D
:102B5E000550061007100810D8B4B8EF15F0BAEFEC
:102B6E0015F0F0EF15F0010E0D6EC4EF15F0D890C4
:102B7E0005360636073608360D2A08AEC9EF15F0AB
:102B8E00CBEF15F0BEEF15F0D89009360A360B369E
:102B9E000C360550015C0650025807500358085079
:102BAE000458D8A0DDEF15F0DFEF15F0E8EF15F0C3
:102BBE000550015E0650025A0750035A0850045A37
:102BCE000980D89008320732063205320D2ECBEF2F
:102BDE0015F009C001F00AC002F00BC003F00CC0E2
:102BEE0004F01200040E0A6E050E14EC1CF0800E9A
:102BFE000A6E0A0E3BEC1CF0000E136E13EF16F06D
:102C0E000DC0D9FF0EC0DAFFDF50016E090E37EC92
:102C1E0017F00D4A0E2A132A0F50135CD8A01AEF84
:102C2E0016F01CEF16F007EF16F0030E016E010EF4
:102C3E0037EC17F01368050E27EC13F0126E13061F
:102C4E001350D8B42DEF16F02FEF16F036EF16F016
:102C5E0012A434EF16F036EF16F022EF16F0220E15
:102C6E0027EC13F010C0D9FF11C0DAFFDF6E20EE93
:102C7E0001F01050D9261150DA22210E27EC13F054
:102C8E00DF6E1200040E0A6E050E21EC1CF0800E93
:102C9E000A6E0A0E47EC1CF0000E136E63EF16F070
:102CAE000DC0D9FF0EC0DAFFDF50016E090E83ECA6
:102CBE0017F00D4A0E2A132A0F50135CD8A06AEF94
:102CCE0016F06CEF16F057EF16F0030E016E010EB4
:102CDE0083EC17F01368050E84EC13F0126E1306D6
:102CEE001350D8B47DEF16F07FEF16F086EF16F086
:102CFE0012A484EF16F086EF16F072EF16F0220E85
:102D0E0084EC13F010C0D9FF11C0DAFFDF6E20EE95
:102D1E0001F01050D9261150DA22210E84EC13F056
:102D2E00DF6E1200040E0A6E050E2EEC1CF0800EE5
:102D3E000A6E0A0E53EC1CF0000E136EB3EF16F073
:102D4E000DC0D9FF0EC0DAFFDF50016E090ECFECB9
:102D5E0017F00D4A0E2A132A0F50135CD8A0BAEFA3
:102D6E0016F0BCEF16F0A7EF16F0030E016E010E73
:102D7E00CFEC17F01368050EE1EC13F0126E13068C
:102D8E001350D8B4CDEF16F0CFEF16F0D6EF16F0F5
:102D9E0012A4D4EF16F0D6EF16F0C2EF16F0220EF4
:102DAE00E1EC13F010C0D9FF11C0DAFFDF6E20EE98
:102DBE0001F01050D9261150DA22210EE1EC13F059
:102DCE00DF6E1200949C948E38C001F039C002F070
:102DDE003AC003F03BC004F0010E15EC10F001C038
:102DEE0013F002C014F003C015F004C016F0600E0C
:102DFE000F6EFE0E106ECD0E116E480E126E6FEC33
:102E0E0006F00FC028F010C029F011C02AF012C031
:102E1E002BF0000E2C6E000E2D6E800E2E6EBF0E41
:102E2E002F6E0FEC04F028C03CF029C03DF02AC0F4
:102E3E003EF02BC03FF03CC001F03DC002F03EC062
:102E4E0003F03FC004F0EFEC10F00150AF6E200E17
:102E5E00AC6E900EAB6EF28EF28C9D8A9D88120037
:102E6E00036E8C928994035003247E0B046E080E1D
:102E7E00056E04BE45EF17F049EF17F0026A022AFD
:102E8E004AEF17F0026A0246024602468C500218BA
:102E9E00F70B02188C6E8C82D89004368C92050635
:102EAE000550D8A45DEF17F05FEF17F040EF17F065
:102EBE00080E056E01BE66EF17F06AEF17F0026A94
:102ECE00022A6BEF17F0026A0246024602468C5047
:102EDE000218F70B02188C6E8C82D89001368C92E9
:102EEE0005060550D8A47EEF17F080EF17F061EFBE
:102EFE0017F089848C821200036E8C928992035093
:102F0E0003247E0B046E080E056E04BE91EF17F0BF
:102F1E0095EF17F0026A022A96EF17F0026A024640
:102F2E00024602468C500218F70B02188C6E8C82E9
:102F3E00D89004368C9205060550D8A4A9EF17F048
:102F4E00ABEF17F08CEF17F0080E056E01BEB2EF67
:102F5E0017F0B6EF17F0026A022AB7EF17F0026AFF
:102F6E000246024602468C500218F70B02188C6E6F
:102F7E008C82D89001368C9205060550D8A4CAEFE3
:102F8E0017F0CCEF17F0ADEF17F089828C8212009C
:102F9E00036E8C928990035003247E0B046E080EF0
:102FAE00056E04BEDDEF17F0E1EF17F0026A022A9C
:102FBE00E2EF17F0026A0246024602468C500218F1
:102FCE00F70B02188C6E8C82D89004368C92050604
:102FDE000550D8A4F5EF17F0F7EF17F0D8EF17F06C
:102FEE00080E056E01BEFEEF17F002EF18F0026A32
:102FFE00022A03EF18F0026A0246024602468C507D
:10300E000218F70B02188C6E8C82D89001368C92B7
:10301E0005060550D8A416EF18F018EF18F0F9EFC2
:10302E0017F089808C8212008C8800D000D000D0DE
:10303E008C9800D000D000D08C8800D000D000D06A
:10304E000F0E016E010ECFEC17F000D000D000D0A5
:10305E008C8800D000D000D08C9800D000D000D04A
:10306E008C8800D000D000D00F0E016E010E83ECC4
:10307E0017F000D000D000D08C8800D000D000D047
:10308E008C9800D000D000D08C8800D000D000D01A
:10309E000F0E016E010E37EC17F000D000D000D0ED
:1030AE0012009EA85DEF18F05FEF18F058EF18F0C1
:1030BE00000E096E7BEF18F009500524076E000E06
:1030CE000620086E07C0F6FF08C0F7FFF86A070E65
:1030DE00F76403D00800F55005D0F6CFE1FFF7CF27
:1030EE00E2FFE750AD6E092A05C001F006C002F0FE
:1030FE0097EC1AF00950076E086A0150075C0250EF
:10310E000858D8A08DEF18F08FEF18F063EF18F075
:10311E0012000A6EABEF18F00A50BF0FBEEC1AF099
:10312E00C4EF18F00A50930FBEEC1AF0C4EF18F06B
:10313E000A50D30FBEEC1AF0C4EF18F00A507F0FEE
:10314E00BEEC1AF0C4EF18F00750086E096A095069
:10315E00000AD8B4B5EF18F0A5EF18F00850020A1F
:10316E00D8B493EF18F0010AD8B499EF18F0070A03
:10317E00D8B49FEF18F0A5EF18F01200226E070ECC
:10318E00016E0D0E37EC17F020C0D9FF21C0DAFF0B
:10319E0022C0DFFF20C00DF021C00EF0010E0F6E19
:1031AE0020C010F021C011F0240E126E000E136E0E
:1031BE000C0E58EC0BF0236E2350D8A4E9EF18F048
:1031CE00EBEF18F0F5EF18F0100E24182510D8B408
:1031DE00F3EF18F0F5EF18F0F7EF18F0020E236E7C
:1031EE0023501200226E070E016E0D0E83EC17F0A7
:1031FE0020C0D9FF21C0DAFF22C0DFFF20C00DF0B2
:10320E0021C00EF0010E0F6E20C010F021C011F083
:10321E00240E126E000E136E0C0E9FEC0CF0236E2D
:10322E002350D8A41DEF19F01FEF19F029EF19F054
:10323E00100E24182510D8B427EF19F029EF19F025
:10324E002BEF19F0020E236E23501200226E070E82
:10325E00016E0D0ECFEC17F020C0D9FF21C0DAFFA2
:10326E0022C0DFFF20C00DF021C00EF0010E0F6E48
:10327E0020C010F021C011F0240E126E000E136E3D
:10328E000C0EE6EC0DF0236E2350D8A451EF19F07E
:10329E0053EF19F05DEF19F0100E24182510D8B465
:1032AE005BEF19F05DEF19F05FEF19F0020E236E70
:1032BE002350120054C058F055C059F0000E0001B2
:1032CE00616F000E606F7FEF19F052C03FF053C078
:1032DE0040F0580E416E000E426E56C043F057C07D
:1032EE0044F02DEC0FF03F50000160274050612359
:1032FE0058C0F6FF59C0F7FF0800F5500009D8A4D2
:10330E008BEF19F08DEF19F06CEF19F060C052F0E1
:10331E0061C053F01200BE0EF66E380EF76E000E40
:10332E00F86E01EE14F010EE14F00900F5CFEEFF7A
:10333E00E550E150FAE15E0EF66E390EF76E000EB4
:10334E00F86E0900F5CFF4F001EE00F0140EEE6AFF
:10335E00E806FDE10001F36B00EE60F0800EEE6A10
:10336E00E806FDE1000EF86E00013CEF08F0500E8D
:10337E00206E000E216E200E0D6E000E0E6E020ED1
:10338E000F6E220E106E000E116EF9EC15F0800EFF
:10339E000A6E080E14EC1CF0200E0D6E000E0E6E52
:1033AE00040E0F6E200E106E000E116E240E126E95
:1033BE00000E136E0C0E58EC0BF0080E0A6E080E73
:1033CE0014EC1CF01200500E206E000E216E200E1A
:1033DE000D6E000E0E6E020E0F6E220E106E000E91
:1033EE00116E49EC16F0800E0A6E080E21EC1CF0E0
:1033FE00200E0D6E000E0E6E040E0F6E200E106E51
:10340E00000E116E240E126E000E136E0C0E9FEC3B
:10341E000CF0080E0A6E080E21EC1CF01200500E75
:10342E00206E000E216E200E0D6E000E0E6E020E20
:10343E000F6E220E106E000E116E99EC16F0800EAD
:10344E000A6E080E2EEC1CF0200E0D6E000E0E6E87
:10345E00040E0F6E200E106E000E116E240E126EE4
:10346E00000E136E0C0EE6EC0DF0080E0A6E080E32
:10347E002EEC1CF01200280EC66E000EC56EC00E8D
:10348E00016EFC0E026E9B0E036E010E046E0EC0DC
:10349E0012F00FC013F010C014F011C015F0020E90
:1034AE00D8901236133614361536E82E57EF1AF01A
:1034BE0012C005F013C006F014C007F015C008F0D6
:1034CE00A7EC15F00104C86E000EC76E12005E0E5A
:1034DE000001E06F000EE16F5AC0E2F05BC0E3F056
:1034EE00000EE66F000EE56F000EEC6F000EEB6F38
:1034FE00E20E526E000E536E5CC054F05DC055F07D
:10350E00E00E566E000E576E61EC19F00001E5519B
:10351E005A24D96EE6515B20DA6E000EDF6E120071
:10352E0001C003F002C004F09FEF1AF0014A022A14
:10353E0001C0F6FF02C0F7FFF86A070EF76403D06A
:10354E000800F55005D0F6CFE1FFF7CFE2FFE750C8
:10355E000009D8A4B5EF1AF0B7EF1AF09DEF1AF0E4
:10356E000350015C016E04500258026E1200066E8A
:10357E000001F3910650F00B7EEC1BF00638F00BB9
:10358E00F00B7EEC1BF00604D8B4D0EF1AF0D2EF9D
:10359E001AF0DBEF1AF0020E0618D8A4D9EF1AF0C3
:1035AE00DBEF1AF0E3EF1AF0120E056E870EE82E1F
:1035BE00FED7052EFCD700F012009F0E096EFF0EEF
:1035CE000A6E07C00BF008C00CF009500B260A500B
:1035DE000C220C5007E11A0E0B5CD8B0F9EF1AF062
:1035EE00FBEF1AF001EF1BF05F0E0714076E086A6F
:1035FE0005EF1BF007C007F008C008F01200000E20
:10360E00106E000E0F6E17EF1BF00EC001F0026A67
:10361E000CC003F00DC004F05FEC12F00F4A102A3C
:10362E000F500A24D96E10500B20DA6EDF500E6E3A
:10363E000E50D8A425EF1BF027EF1BF00CEF1BF05C
:10364E0012009F0E036EFF0E046E200E0110056E0B
:10365E00000E0210066E0350052604500622065078
:10366E000AE11A0E055CD8A03FEF1BF042EF1BF0EB
:10367E00010E43EF1BF0000E016E026A12009F0E48
:10368E00036EFF0E046E01C005F002C006F003507B
:10369E0005260450062206500AE11A0E055CD8A033
:1036AE005BEF1BF05EEF1BF0010E5FEF1BF0000EE9
:1036BE00016E026A1200BF0E036EFF0E046E01C091
:1036CE0005F002C006F003500526045006220650EF
:1036DE000AE11A0E055CD8A077EF1BF07AEF1BF00B
:1036EE00010E7BEF1BF0000E016E026A1200046EDB
:1036FE00000E0001F3B1010E04120450FB0B05EC99
:10370E001CF000D000D000D00450040905EC1CF0D1
:10371E0000D000D000D00450FB0B05EC1CF0E10EE5
:10372E00E82EFED71200026EC7B4A0EF1BF0A2EF78
:10373E001BF09BEF1BF0C5CF01F01F0E0116D8A496
:10374E00ABEF1BF0ADEF1BF09BEF1BF002C0C9FF00
:10375E001200C7B4B5EF1BF0B7EF1BF0B0EF1BF0C4
:10376E00C5CF01F01F0E0116D8A4C0EF1BF0C2EF9B
:10377E001BF0B0EF1BF0C5841200C7B4C9EF1BF0ED
:10378E00CBEF1BF0C4EF1BF0C5CF01F01F0E0116DF
:10379E00D8A4D4EF1BF0D6EF1BF0C4EF1BF0C580FE
:1037AE00120028C020F029C021F099EC14F020EE70
:1037BE0005F02850D9262950DA22000EDF6E1200AD
:1037CE0028C020F029C021F0F3EC14F020EE05F013
:1037DE002850D9262950DA22000EDF6E120028C09A
:1037EE0020F029C021F04DEC15F020EE05F0285008
:1037FE00D9262950DA22000EDF6E1200036EC4ECB9
:10380E001BF00001F2519AEC1BF003500001F41171
:10381E009AEC1BF0B0EC1BF012000C6E0C5027EC67
:10382E0013F00B6E0A50FF0A0B14016E0C5037EC9E
:10383E0017F012000C6E0C5084EC13F00B6E0A5045
:10384E00FF0A0B14016E0C5083EC17F012000C6E75
:10385E000C50E1EC13F00B6E0A50FF0A0B14016EC4
:10386E000C50CFEC17F012000C6E0C5027EC13F02E
:10387E000B6E0B500A10016E0C5037EC17F0120045
:10388E000C6E0C5084EC13F00B6E0B500A10016E84
:10389E000C5083EC17F012000C6E0C50E1EC13F090
:1038AE000B6E0B500A10016E0C50CFEC17F012007D
:1038BE0068656C6C6F0000000000000000000000E6
:1038CE0000000000140E27EC13F0030E0A6E140E07
:1038DE003BEC1CF01200140E84EC13F0030E0A6E77
:1038EE00140E47EC1CF01200140EE1EC13F0030E54
:1038FE000A6E140E53EC1CF0120026C020F027C0E6
:10390E0021F0260EC5EC18F0120026C020F027C0BC
:10391E0021F0260EF9EC18F0120026C020F027C078
:10392E0021F0260E2DEC19F01200030E0A6E140E65
:10393E0014EC1CF01200030E0A6E140E21EC1CF097
:10394E001200030E0A6E140E2EEC1CF01200120062
:01395E000860
:020000040020DA
:08000000FFFFFFFFFFFFFFFF00
:020000040030CA
:0E000000000C1E1EFF8181FF0FC00FE00F409D
:00000001FF
