:0400000080EF11F08C
:100800000057656C636F6D65002558002564000016
:100810001EC036F01FC037F020C038F021C039F0BC
:1008200022C03AF023C03BF024C03CF025C03DF08C
:100830003DBE1DEF04F020EF04F0010E21EF04F0A7
:10084000000E346E356A34503510D8B42AEF04F0F7
:100850002CEF04F03CEF04F03D1E3C1E3B1E3A1E04
:10086000391E381E371E366C000E372238223922C8
:100870003A223B223C223D22000165BF42EF04F0B8
:1008800044EF04F045EF04F0669365BF52EF04F0C7
:10089000655106E16405D8B050EF04F052EF04F062
:1008A00058EF04F0000E316E010E306E5CEF04F074
:1008B00064C030F065C031F062C032F063C033F024
:1008C00034503510D8A467EF04F069EF04F070EFEE
:1008D00004F066A56EEF04F070EF04F073EF04F01F
:1008E0003206D8A03306000E3F6E1F0E3E6E000E7D
:1008F0008A6FF7EF04F03E06D8A03F066B0E3E2449
:10090000D96E000E3F20DA6E36C001F037C002F01B
:1009100038C003F039C004F03AC005F03BC006F01F
:100920003CC007F03DC008F00A0E096E000E0A6ECA
:10093000000E0B6E000E0C6E000E0D6E000E0E6E95
:10094000000E0F6E000E106E2CEC0BF001C026F0A6
:1009500002C027F003C028F004C029F005C02AF027
:1009600006C02BF007C02CF008C02DF026C013F0F5
:1009700028C014F0D3EC10F01350300FDF6E3006A7
:10098000D8A031063206D8A0330636C001F037C0F1
:1009900002F038C003F039C004F03AC005F03BC0A3
:1009A00006F03CC007F03DC008F00A0E096E000ECC
:1009B0000A6E000E0B6E000E0C6E000E0D6E000E19
:1009C0000E6E000E0F6E000E106E68EC0AF001C085
:1009D00036F002C037F003C038F004C039F005C06B
:1009E0003AF006C03BF007C03CF008C03DF03FBE07
:1009F00002EF05F03F5008E13E04D8A002EF05F0F9
:100A000004EF05F035EF05F0365037103810391087
:100A10003A103B103C103D10D8A411EF05F013EF35
:100A200005F07BEF04F031BE20EF05F0315006E118
:100A30003004D8B01EEF05F020EF05F07BEF04F096
:100A400033BE2BEF05F0335008E13204D8A02BEF72
:100A500005F02DEF05F035EF05F0000166B333EF3B
:100A600005F035EF05F07BEF04F034503510D8A4D5
:100A70003CEF05F03EEF05F046EF05F0000166A5FE
:100A800044EF05F046EF05F064EF05F03E06D8A010
:100A90003F0634503510D8A450EF05F052EF05F062
:100AA00058EF05F0000E2F6E2B0E2E6E5CEF05F04A
:100AB000000E2F6E2D0E2E6E6B0E3E24D96E000E84
:100AC0003F20DA6E2EC0DFFF1CC011F01DC012F0F7
:100AD0006B0E3E24136E000E3F20146E32C015F0D4
:100AE00033C016F0BAEC0CF011C01CF012C01DF0AF
:100AF0001200000165BF7FEF05F081EF05F082EF86
:100B000005F0669365BF8FEF05F0655106E164055A
:100B1000D8B08DEF05F08FEF05F095EF05F0000EE2
:100B2000306E010E2F6E99EF05F064C02FF065C096
:100B300030F062C031F063C032F066A9A2EF05F078
:100B4000A4EF05F0A8EF05F0FE0E3126FF0E3222CD
:100B50001EC033F01FC034F020C035F021C036F085
:100B600022C037F023C038F024C039F025C03AF055
:100B7000000E3C6E1F0E3B6E000E8A6F59EF06F0A2
:100B80003B06D8A03C060F0E33143D6E3E6A3EBEB7
:100B9000D3EF05F03E5009E10A0E3D5CD8A0D3EF3B
:100BA00005F0D5EF05F0DDEF05F0570E3D243D6E65
:100BB000000E3E203E6EE3EF05F0300E3D243D6E0C
:100BC000000E3E203E6EBF0E276EFF0E286E265092
:100BD000296E2A6A2750292628502A222A5007E1FE
:100BE0001A0E295CD8B0F7EF05F0F9EF05F01CEF0D
:100BF00006F09F0E276EFF0E286E200E3D10296E08
:100C0000000E3E102A6E2750292628502A222A50EC
:100C100007E11A0E295CD8B010EF06F012EF06F0CB
:100C20001CEF06F03DC007F03EC008F08FEC10F05E
:100C300007C03DF008C03EF06B0E3B24D96E000E9D
:100C40003C20DA6E3DC0DFFF2F06D8A0300631060B
:100C5000D8A0320633C027F034C028F035C029F0C0
:100C600036C02AF037C02BF038C02CF039C02DF038
:100C70003AC02EF0050E46EF06F0D8902E322D32F7
:100C80002C322B322A32293228322732E82E3DEFFD
:100C900006F027C033F028C034F029C035F02AC050
:100CA00036F02BC037F02CC038F02DC039F02EC0F4
:100CB0003AF03CBE65EF06F03C5009E1020E3B5CA9
:100CC000D8A065EF06F067EF06F098EF06F0335016
:100CD0003410351036103710381039103A10D8A4A7
:100CE00074EF06F076EF06F0C0EF05F030BE83EF4C
:100CF00006F0305006E12F04D8B081EF06F083EF04
:100D000006F0C0EF05F032BE8EEF06F0325008E17B
:100D10003104D8A08EEF06F090EF06F098EF06F0C1
:100D2000000166B396EF06F098EF06F0C0EF05F00D
:100D3000000166A99EEF06F0A0EF06F0B6EF06F000
:100D40003B06D8A03C066B0E3B24D96E000E3C201F
:100D5000DA6E26C0DFFF3B06D8A03C066B0E3B24B4
:100D6000D96E000E3C20DA6E300EDF6E1CC011F022
:100D70001DC012F06B0E3B24136E000E3C20146E4F
:100D800031C015F032C016F0BAEC0CF011C01CF0F6
:100D900012C01DF0120042C0D9FF43C0DAFFDECFFF
:100DA000F6FFDDCFF7FF0800F550250AD8A4DBEFEA
:100DB00006F0DDEF06F0FBEF07F042C0D9FF43C0BD
:100DC000DAFFDE2A000EDD22000E0001636F000E46
:100DD000626F62C066F063C067F06469656942C0B3
:100DE000D9FF43C0DAFFDECFF6FFDDCFF7FF080003
:100DF000F550640AD8B4FFEF06F001EF07F013EFE7
:100E000007F042C0D9FF43C0DAFFDECFF6FFDDCFE7
:100E1000F7FF0800F550690AD8A411EF07F013EFA7
:100E200007F053EF07F042C0D9FF43C0DAFFDE2AD4
:100E3000000EDD2244C0D9FF45C0DAFFDFCF46F007
:100E4000020EDE26DFCF47F0000EDD2246C0D9FFBE
:100E500047C0DAFFDECF4AF0DDCF4BF0000E4BBECD
:100E6000FF0E4C6E4D6E4E6E4F6E506E516E40C00A
:100E70001CF041C01DF04AC01EF04BC01FF04CC01A
:100E800020F04DC021F04EC022F04FC023F050C0E2
:100E900024F051C025F008EC04F01CC040F01DC047
:100EA00041F016EF08F042C0D9FF43C0DAFFDECFB1
:100EB000F6FFDDCFF7FF0800F550780AD8B463EFEE
:100EC00007F065EF07F077EF07F042C0D9FF43C0A6
:100ED000DAFFDECFF6FFDDCFF7FF0800F550580A46
:100EE000D8A475EF07F077EF07F0C5EF07F042C021
:100EF000D9FF43C0DAFFDECFF6FFDDCFF7FF0800F2
:100F0000F5CF5AF042C0D9FF43C0DAFFDE2A000E07
:100F1000DD2244C0D9FF45C0DAFFDFCF46F0020E24
:100F2000DE26DFCF47F0000EDD2246C0D9FF47C0E6
:100F3000DAFFDECF48F0DDCF49F048C052F049C0BB
:100F400053F0546A556A566A576A586A596A40C0DB
:100F50001CF041C01DF052C01EF053C01FF054C021
:100F600020F055C021F056C022F057C023F058C0E1
:100F700024F059C025F05AC026F079EC05F01CC0C9
:100F800040F01DC041F016EF08F042C0D9FF43C049
:100F9000DAFFDECFF6FFDDCFF7FF0800F550250AB8
:100FA000D8A4D5EF07F0D7EF07F0EEEF07F042C077
:100FB000D9FF43C0DAFFDE2A000EDD22000E026EEA
:100FC000250E016E40C003F041C004F055EC0CF05A
:100FD000000E416E010E406E16EF08F042C0D9FFC0
:100FE00043C0DAFFDE2A000EDD22000E416E000E45
:100FF000406E16EF08F042C0D9FF43C0DAFFDECFE3
:10100000F6FFDDCFF7FF0800F550016E026A40C021
:1010100003F041C004F055EC0CF042C0D9FF43C0CE
:10102000DAFFDE2A000EDD22E8EF07F012001C6E68
:10103000020E196E000E1B6E000E186E2CEF08F0DB
:10104000120E1B6E100E186E41EF08F0770E1B6E1D
:10105000300E186E41EF08F01C50146E156A1550D2
:10106000000AD8B436EF08F041EF08F014500C0A2B
:10107000D8B426EF08F0020AD8B420EF08F041EF08
:1010800008F01B508009016E020ED2EC0EF0800EAB
:101090000A6E040E07EC12F0800E0A6E0A0E14ECB3
:1010A00012F0000E016E010ED2EC0EF0000E1E6E5C
:1010B000000E1D6E69EF08F01D500D24D96E1E50F4
:1010C0000E20DA6EDF50016E090ED2EC0EF01D4AD2
:1010D0001E2A0F50146E156A14501D5C15501E58B0
:1010E000D8A075EF08F077EF08F05CEF08F01CC0AF
:1010F00001F0010ED2EC0EF00C0E1C18D8A483EFF8
:1011000008F085EF08F08AEF08F0800E0A6E0D0EE9
:1011100014EC12F01D681E68040E1DEC0DF01F6E1D
:101120001D06D8A01E061D501E10D8B49AEF08F058
:101130009CEF08F0ADEF08F01FB0A1EF08F0A3EFAF
:1011400008F0ADEF08F01F5018140009D8B4ABEF49
:1011500008F0ADEF08F08CEF08F0800E0A6E0D0E6F
:1011600007EC12F01D501E10D8B4B9EF08F0BBEF19
:1011700008F05CEF09F0060E1DEC0DF0146E1B0E6E
:101180001416D8A4C6EF08F0C8EF08F05AEF09F01B
:10119000000E196E1F501B14146E14A0D2EF08F02D
:1011A000D4EF08F0D6EF08F0010E196E0C0E1C18E3
:1011B000D8A4DDEF08F0DFEF08F05CEF09F00A0ECD
:1011C0001DEC0DF01F6E0C0E1DEC0DF0070B1A6ED2
:1011D0001A50D8B4EEEF08F0F0EF08F012EF09F073
:1011E000F80E146EFF0E156E1A501FC016F0176A17
:1011F000D89016361736D89016361736D890163639
:1012000017361626000E17221450162615501722D0
:1012100012C0D9FF13C0DAFF16C0DEFF17C0DDFF12
:101220001CEF09F01F50080D12C0D9FF13C0DAFFE0
:10123000F3CFDEFFF4CFDDFF1F50D8A422EF09F07B
:1012400024EF09F026EF09F0010E1F6E100E1F6447
:101250002CEF09F02EEF09F030EF09F0100E1F6EA1
:10126000000E1E6E000E1D6E42EF09F01D50102480
:10127000D96E1E501120DA6E090E1DEC0DF0DF6ED6
:101280001D4A1E2A1F50146E156A14501D5C1550FD
:101290001E58D8A04EEF09F050EF09F036EF09F0D4
:1012A0001D501024D96E1E501120DA6E000EDF6E14
:1012B0005CEF09F0020E196E1950120037EC12F0B3
:1012C000A00E0E6E860E0F6E010E106E000E116EC9
:1012D00014EC10F04E0EDEEC0BF0B8EC0FF0120E2A
:1012E0005E6E200E5D6E100EE82EFED75D2EFCD7D2
:1012F0005E2EFAD7010E076E010E1EEC0FF0010EE6
:10130000056E080E066E7BEC0DF08A8E450E5E6E45
:101310007D0E5D6E480EE82EFED75D2EFCD75E2E4C
:10132000FAD7010E69EC10F08A9EBB0E266E000EF5
:10133000276E29EC12F09B0E286E000E296EE9EC48
:1013400011F09B0E206E000E216ED6EC0DF0000108
:101350006A6F9B0E016E000E026E65EC11F00104C7
:101360000210D8A4B6EF09F0B8EF09F0E1EF09F0E8
:10137000010E69EC10F0010E076E010E1EEC0FF06D
:101380009B0E016E000E026E65EC11F001C0D5F0EF
:1013900002C0D6F08B0E0001C26F000EC36F0C0EA0
:1013A000C46F080EC56FD5C0C6F0D6C0C7F040ECFC
:1013B00010F08B0E056E000E066E7BEC0DF008EF44
:1013C0000AF0010E69EC10F0010E076E010E1EEC22
:1013D0000FF09B0E016E000E026E65EC11F001C065
:1013E000D5F002C0D6F08B0E0001C26F000EC36FA5
:1013F0000C0EC46F080EC56FD5C0C6F0D6C0C7F0BE
:1014000040EC10F08B0E056E000E066E7BEC0DF0BE
:10141000020E076E010E1EEC0FF000016A51D8A4F7
:1014200014EF0AF016EF0AF055EF0AF0000ED86F2D
:10143000000ED76FAB0EC26F000EC36F090EC46FE4
:10144000080EC56F9B0ED725D96E000ED821DA6E17
:10145000DF505D6E5D50C66FC76B40EC10F0AB0E99
:10146000056E000E066E7BEC0DF00001D74BD82BFD
:10147000D8BF44EF0AF0D85109E1050ED75DD8A0D6
:1014800044EF0AF046EF0AF01AEF0AF08A8E230EB4
:101490005E6E3F0E5D6E220EE82EFED75D2EFCD7EF
:1014A0005E2EFAD700D095EF09F0020E5E6EB70EF1
:1014B0005D6E4C0EE82EFED75D2EFCD75E2EFAD761
:1014C00000D08A9EE8EC0FF095EF09F000EF00F0F5
:1014D000000E126E10BE71EF0AF06FEF0AF083EF8C
:1014E0000AF0101E0F1E0E1E0D1E0C1E0B1E0A1ED5
:1014F000096C000E0A220B220C220D220E220F2252
:101500001022010E126E08BE8AEF0AF088EF0AF070
:101510009CEF0AF0081E071E061E051E041E031E71
:10152000021E016C000E0222032204220522062262
:1015300007220822010E121A20EE13F0070EDE6AAF
:10154000E806FDE209500A100B100C100D100E10E9
:101550000F101010D8B4AFEF0AF0B1EF0AF003EF9C
:101560000BF0010E116EBFEF0AF0D89009360A3663
:101570000B360C360D360E360F361036112A10AEDD
:10158000C4EF0AF0C6EF0AF0B5EF0AF0D8901336B0
:101590001436153616361736183619361A360950D7
:1015A000015C0A5002580B5003580C5004580D505F
:1015B00005580E5006580F50075810500858D8A01C
:1015C000E4EF0AF0E6EF0AF0F7EF0AF00950015EE7
:1015D0000A50025A0B50035A0C50045A0D50055A27
:1015E0000E50065A0F50075A1050085A1380D890C0
:1015F00010320F320E320D320C320B320A320932F7
:10160000112EC6EF0AF01250D8B409EF0BF00BEF11
:101610000BF01BEF0BF01A1E191E181E171E161EBC
:10162000151E141E136C000E1422152216221722EA
:10163000182219221A2213C001F014C002F015C09A
:1016400003F016C004F017C005F018C006F019C06A
:1016500007F01AC008F01200000E126E08BE35EF37
:101660000BF033EF0BF047EF0BF0081E071E061EC2
:10167000051E041E031E021E016C000E0222032220
:1016800004220522062207220822010E126E10BE35
:101690004EEF0BF04CEF0BF05EEF0BF0101E0F1E39
:1016A0000E1E0D1E0C1E0B1E0A1E096C000E0A22B9
:1016B0000B220C220D220E220F22102209500A109A
:1016C0000B100C100D100E100F101010D8B46BEF83
:1016D0000BF06DEF0BF0B5EF0BF0010E116E7BEF21
:1016E0000BF0D89009360A360B360C360D360E360E
:1016F0000F361036112A10AE80EF0BF082EF0BF090
:1017000071EF0BF00950015C0A5002580B5003585E
:101710000C5004580D5005580E5006580F500758DD
:1017200010500858D8A097EF0BF099EF0BF0A9EFE5
:101730000BF00950015E0A50025A0B50035A0C502C
:10174000045A0D50055A0E50065A0F50075A1050A1
:10175000085AD89010320F320E320D320C320B3242
:101760000A320932112E82EF0BF01250D8B4BBEFBF
:101770000BF0BDEF0BF0CDEF0BF0081E071E061EA1
:10178000051E041E031E021E016C000E022203220F
:101790000422052206220722082201C001F002C00D
:1017A00002F003C003F004C004F005C005F006C059
:1017B00006F007C007F008C008F01200096E09C063
:1017C000D9F0000EF8EC11F0020E086E5F0E076EF5
:1017D000A30EE82EFED7072EFCD7082EFAD700F06E
:1017E000030E69EC10F02C0E076ED40EE82EFED717
:1017F000072EFCD7030E69EC10F02C0E076ED40EEA
:10180000E82EFED7072EFCD7030E69EC10F02C0E45
:10181000076ED40EE82EFED7072EFCD7020E69EC19
:1018200010F02C0E076ED40EE82EFED7072EFCD734
:10183000280E69EC10F0020E086EB70E076E4C0E03
:10184000E82EFED7072EFCD7082EFAD700D00C0EB4
:1018500069EC10F0020E086EB70E076E4C0EE82E03
:10186000FED7072EFCD7082EFAD700D0010E69EC60
:1018700010F0020E086EB70E076E4C0EE82EFED763
:10188000072EFCD7082EFAD700D0060E69EC10F010
:10189000020E086EB70E076E4C0EE82EFED7072E0E
:1018A000FCD7082EFAD700D0120003500410D8B489
:1018B0005CEF0CF05EEF0CF067EF0CF003500410DF
:1018C000D8A465EF0CF067EF0CF06CEF0CF0015052
:1018D0003AEC12F0B9EF0CF020EE09F00350D926E3
:1018E0000450DA22DE50DE10D8B479EF0CF07BEF32
:1018F0000CF096EF0CF020EE09F00350D9260450BE
:10190000DA2210EE03F00350E1260450E222DE500A
:10191000E65CE650800A096EDE50800A0958D8B0AD
:1019200094EF0CF096EF0CF0B9EF0CF020EE03F012
:101930000350D9260450DA22DECF05F0DDCF06F0C1
:1019400003C0D9FF04C0DAFFDECF07F0DDCF08F017
:1019500005500724D96E06500820DA6E01C0DFFF5B
:1019600020EE03F00350D9260450DA22DE2A000EBE
:10197000DD221200000166A1C0EF0CF0C2EF0CF0F6
:10198000CCEF0CF013C00AF014C00BF011C00CF037
:1019900012C00DF0B1EC10F016BED1EF0CF0D3EF89
:1019A0000CF0D9EF0CF015C01AF016C01BF0DDEFEB
:1019B0000CF0000E1B6E000E1A6E000E196E000E5B
:1019C000186EEFEF0CF0000E026E200E016E11C0CB
:1019D00003F012C004F055EC0CF0184A192A1A5002
:1019E000185C1950800A176E1B50800A1758D8A02F
:1019F000FCEF0CF0FEEF0CF0E3EF0CF0000166B131
:101A000004EF0DF006EF0DF010EF0DF013C00AF02B
:101A100014C00BF011C00CF012C00DF0B1EC10F0BE
:101A200013C001F014C002F065EC11F01A5001244B
:101A3000116E1B500220126E1200036E000E076E14
:101A4000000E066E8C9289908992035003247E0BBF
:101A5000016E026A800E0110046E0250056E000EC7
:101A6000096E080E086E04BE38EF0DF03CEF0DF065
:101A7000016A012A3DEF0DF0016A014601468C50D2
:101A80000118FB0B01188C6E8C82D8900436053639
:101A90008C920806D8A0090608500910D8A453EF64
:101AA0000DF055EF0DF033EF0DF0000E096E080E3E
:101AB000086E8C82D8900636073683B662EF0DF03A
:101AC00066EF0DF0016A012A67EF0DF0016A01501F
:101AD00006128C920806D8A0090608500910D8A44E
:101AE00074EF0DF076EF0DF059EF0DF089808982DB
:101AF0008C8206501200000E0A6E0001DA81B7EFE8
:101B00000DF00A500524076E000E0620086E07C06F
:101B1000F6FF08C0F7FFF86A070EF76403D0080065
:101B2000F55005D0F6CFE1FFF7CFE2FFE750F00B1D
:101B300049EC11F00A500524076E000E0620086ECD
:101B400007C0F6FF08C0F7FFF86A070EF76403D076
:101B50000800F55005D0F6CFE1FFF7CFE2FFE750E0
:101B6000096E0938F00BF00B49EC11F00A2A0A5003
:101B70000524076E000E0620086E07C0F6FF08C099
:101B8000F7FFF86A070EF76403D00800F55005D098
:101B9000F6CFE1FFF7CFE2FFE7500009D8A4D3EF7B
:101BA0000DF0D5EF0DF081EF0DF01200000E236E59
:101BB000000E016E0D0ED2EC0EF020C0D9FF21C038
:101BC000DAFF930EDF6E20EE01F02050D92621506F
:101BD000DA22200EDF6E080E0A6E080E07EC12F0F5
:101BE00020C00DF021C00EF0020E0F6E20C010F0CC
:101BF00021C011F0240E126E000E136E0C0E17ECA5
:101C000008F0266E2650D8A408EF0EF00AEF0EF06A
:101C10002EEF0EF0000E276E27502024D96E000EF6
:101C20002120DA6EDF50231A272A040E27641BEFC7
:101C30000EF01DEF0EF00CEF0EF020EE05F0205030
:101C4000D9262150DA222350DE18D8B42AEF0EF01C
:101C50002CEF0EF02EEF0EF0020E266E2650120024
:101C6000000E096E000E0A6E000E0B6E000E0C6E5A
:101C70000550061007100810D8B441EF0EF043EFDE
:101C80000EF079EF0EF0010E0D6E4DEF0EF0D890C4
:101C900005360636073608360D2A08AE52EF0EF026
:101CA00054EF0EF047EF0EF0D89009360A360B3697
:101CB0000C360550015C0650025807500358085076
:101CC0000458D8A066EF0EF068EF0EF071EF0EF03A
:101CD0000550015E0650025A0750035A0850045A34
:101CE0000980D89008320732063205320D2E54EFA3
:101CF0000EF009C001F00AC002F00BC003F00CC0E6
:101D000004F01200040E0A6E050E07EC12F0800EAD
:101D10000A6E0A0E14EC12F0000E136E9CEF0EF019
:101D20000DC0D9FF0EC0DAFFDF50016E090ED2ECF4
:101D30000EF00D4A0E2A132A0F50135CD8A0A3EF01
:101D40000EF0A5EF0EF090EF0EF0030E016E010EF7
:101D5000D2EC0EF01368050E1DEC0DF0126E13069A
:101D60001350D8B4B6EF0EF0B8EF0EF0BFEF0EF090
:101D700012A4BDEF0EF0BFEF0EF0ABEF0EF0220E8F
:101D80001DEC0DF010C0D9FF11C0DAFFDF6E20EEA0
:101D900001F01050D9261150DA22210E1DEC0DF061
:101DA000DF6E1200036E8C92899089920350032497
:101DB0007E0B046E080E056E04BEE1EF0EF0E5EF3B
:101DC0000EF0026A022AE6EF0EF0026A02460246AE
:101DD0008C500218FB0B02188C6E8C82D890043643
:101DE0008C9205060550D8A4F8EF0EF0FAEF0EF02D
:101DF000DCEF0EF0080E056E01BE01EF0FF005EFEF
:101E00000FF0026A022A06EF0FF0026A024602464B
:101E10008C500218FB0B02188C6E8C82D890013605
:101E20008C9205060550D8A418EF0FF01AEF0FF0AA
:101E3000FCEF0EF0898089828C8212000A6E39EFE5
:101E40000FF00A50BF0F69EC10F052EF0FF00A507C
:101E5000930F69EC10F052EF0FF00A50D30F69ECBA
:101E600010F052EF0FF00A507F0F69EC10F052EFB4
:101E70000FF00750086E096A0950000AD8B443EF02
:101E80000FF033EF0FF00850020AD8B421EF0FF033
:101E9000010AD8B427EF0FF0070AD8B42DEF0FF0DE
:101EA00033EF0FF01200226E070E016E0D0ED2EC12
:101EB0000EF020C0D9FF21C0DAFF22C0DFFF20C012
:101EC0000DF021C00EF0010E0F6E20C010F021C0E9
:101ED00011F0240E126E000E136E0C0E17EC08F0AB
:101EE000236E2350D8A477EF0FF079EF0FF083EF34
:101EF0000FF0100E24182510D8B481EF0FF083EFE7
:101F00000FF085EF0FF0020E236E23501200BEC0BB
:101F10005BF0BFC05CF0000E0001616F000E606FEF
:101F2000A5EF0FF0BCC040F0BDC041F05B0E426EAB
:101F3000000E436EC0C044F0C1C045F0CBEC06F0CB
:101F4000405000016027415061235BC0F6FF5CC038
:101F5000F7FF0800F5500009D8A4B1EF0FF0B3EF78
:101F60000FF092EF0FF060C0BCF061C0BDF0120046
:101F70009594959292909292958695988C928C9445
:101F8000898089828C88ACEC11F08D0E016E2A0E4E
:101F9000D2EC0EF03E0E016E2B0ED2EC0EF01E0EA9
:101FA000016E2D0ED2EC0EF0000E016E2C0ED2EC56
:101FB0000EF0400E016E150ED2EC0EF03D0E016ECD
:101FC000110ED2EC0EF031EC12F020EC12F01200F7
:101FD000500E206E000E216E200E0D6E000E0E6E45
:101FE000020E0F6E220E106E000E116E82EC0EF0BD
:101FF000800E0A6E080E07EC12F0200E0D6E000E19
:102000000E6E040E0F6E200E106E000E116E240E5A
:10201000126E000E136E0C0E17EC08F0080E0A6E0E
:10202000080E07EC12F01200280EC66E000EC56EE8
:10203000C00E016EFC0E026E9B0E036E010E046E4E
:102040000EC012F00FC013F010C014F011C015F044
:10205000020ED8901236133614361536E82E29EFB4
:1020600010F012C005F013C006F014C007F015C040
:1020700008F030EC0EF00104C86E000EC76E1200BE
:10208000C60E0001C86F000EC96FC2C0CAF0C3C03F
:10209000CBF0000ECE6F000ECD6F000ED46F000E91
:1020A000D36FCA0EBC6F000EBD6FC4C0BEF0C5C0FA
:1020B000BFF0C80EC06F000EC16F87EC0FF00001BB
:1020C000CD51C225D96ECE51C321DA6E000EDF6E1E
:1020D0001200066E0001DA910650F00B49EC11F087
:1020E0000638F00BF00B49EC11F00604D8B47BEF86
:1020F00010F07DEF10F086EF10F0020E0618D8A455
:1021000084EF10F086EF10F08EEF10F0120E056ED7
:10211000870EE82EFED7052EFCD700F012009F0E8A
:10212000096EFF0E0A6E07C00BF008C00CF00950D4
:102130000B260A500C220C5007E11A0E0B5CD8B08B
:10214000A4EF10F0A6EF10F0ACEF10F05F0E071444
:10215000076E086AB0EF10F007C007F008C008F07B
:102160001200000E106E000E0F6EC2EF10F00EC0C7
:1021700001F0026A0CC003F00DC004F055EC0CF045
:102180000F4A102A0F500A24D96E10500B20DA6E15
:10219000DF500E6E0E50D8A4D0EF10F0D2EF10F03A
:1021A000B7EF10F0120014BEE0EF10F0145006E18B
:1021B0001304D8B0DEEF10F0E0EF10F0EEEF10F007
:1021C00013C015F014C016F0151E161E154A162A57
:1021D00015C013F016C014F0F2EF10F013C013F096
:1021E00014C014F012009F0E036EFF0E046E200E3A
:1021F0000110056E000E0210066E035005260450F5
:10220000062206500AE11A0E055CD8A00AEF11F06A
:102210000DEF11F0010E0EEF11F0000E016E026ACB
:1022200012009F0E036EFF0E046E01C005F002C087
:1022300006F0035005260450062206500AE11A0E45
:10224000055CD8A026EF11F029EF11F0010E2AEF5E
:1022500011F0000E016E026A1200BF0E036EFF0E37
:10226000046E01C005F002C006F0035005260450BC
:10227000062206500AE11A0E055CD8A042EF11F0C2
:1022800045EF11F0010E46EF11F0000E016E026AEB
:102290001200046E000E0001DAB1010E04120450A7
:1022A000FB0BF8EC11F000D000D000D00450040972
:1022B000F8EC11F000D000D000D00450FB0BF8EC8B
:1022C00011F0E10EE82EFED7120001C003F002C0AB
:1022D00004F06DEF11F0014A022A01C0D9FF02C0DB
:1022E000DAFFDF50D8A477EF11F079EF11F06BEF40
:1022F00011F00350015C016E04500258026E12008E
:10230000760EF66E240EF76E000EF86E0900F5CF0D
:10231000DBF00001DA6B00EE60F05C0EEE6AE806BE
:10232000FDE1000EF86E00015EEF09F0026EC7B429
:102330009CEF11F09EEF11F097EF11F0C5CF01F077
:102340001F0E0116D8A4A7EF11F0A9EF11F097EF17
:1023500011F002C0C9FF12008C8800D000D000D05C
:102360008C9800D000D000D08C8800D000D000D055
:102370000F0E016E010ED2EC0EF000D000D000D096
:102380001200C7B4C6EF11F0C8EF11F0C1EF11F0A1
:10239000C5CF01F01F0E0116D8A4D1EF11F0D3EF75
:1023A00011F0C1EF11F0C5841200C7B4DAEF11F0DB
:1023B000DCEF11F0D5EF11F0C5CF01F01F0E0116C3
:1023C000D8A4E5EF11F0E7EF11F0D5EF11F0C580DB
:1023D000120028C020F029C021F0D6EC0DF020EE2C
:1023E00005F02850D9262950DA22000EDF6E12009F
:1023F000036ED5EC11F00001D95196EC11F00350A9
:102400000001DB1196EC11F0C1EC11F012000C6E22
:102410000C501DEC0DF00B6E0A50FF0A0B14016EF0
:102420000C50D2EC0EF012000C6E0C501DEC0DF0A6
:102430000B6E0B500A10016E0C50D2EC0EF0120015
:10244000140E1DEC0DF0030E0A6E140E14EC12F0B7
:10245000120026C020F027C021F0260E53EC0FF00A
:102460001200030E0A6E140E07EC12F01200939E77
:072470008A9E120012000811
:020000040020DA
:08000000FFFFFFFFFFFFFFFF00
:020000040030CA
:0E000000000C1E1EFF8181FF0FC00FE00F409D
:00000001FF
