:040000001DEF00F000
:060008005D821FED12F005
:100018005D80E0CF01F0F29E9EA815EF00F017EF8B
:1000280000F018EF00F09E98F28E01C0E0FF5D909E
:0600380010006FEF11F053
:100800000057656C636F6D650049443A00255800D8
:0108100000E7
:10081200000175BF0FEF04F011EF04F012EF04F0C6
:10082200769375BF1FEF04F0755106E17405D8B0D9
:100832001DEF04F01FEF04F025EF04F0000E316EFF
:10084200010E306E29EF04F074C030F075C031F043
:1008520072C032F073C033F076A932EF04F034EF95
:1008620004F038EF04F0FE0E3226FF0E33221FC0D2
:1008720034F020C035F021C036F022C037F023C05A
:1008820038F024C039F025C03AF026C03BF0000E03
:100892003D6E1F0E3C6E000E9B6FE9EF04F03C06AE
:1008A200D8A03D060F0E34143E6E3F6A3FBE63EF82
:1008B20004F03F5009E10A0E3E5CD8A063EF04F059
:1008C20065EF04F06DEF04F0570E3E243E6E000E0D
:1008D2003F203F6E73EF04F0300E3E243E6E000E5A
:1008E2003F203F6EBF0E286EFF0E296E27502A6EE4
:1008F2002B6A28502A2629502B222B5007E11A0E48
:100902002A5CD8B087EF04F089EF04F0ACEF04F072
:100912009F0E286EFF0E296E200E3E102A6E000ECC
:100922003F102B6E28502A2629502B222B5007E1EC
:100932001A0E2A5CD8B0A0EF04F0A2EF04F0ACEFDC
:1009420004F03EC008F03FC009F081EC10F008C08E
:100952003EF009C03FF07C0E3C24D96E000E3D20D3
:10096200DA6E3EC0DFFF3006D8A031063206D8A0CC
:10097200330634C028F035C029F036C02AF037C01B
:100982002BF038C02CF039C02DF03AC02EF03BC00D
:100992002FF0050ED6EF04F0D8902F322E322D32E2
:1009A2002C322B322A3229322832E82ECDEF04F0B3
:1009B20028C034F029C035F02AC036F02BC037F0F9
:1009C2002CC038F02DC039F02EC03AF02FC03BF0C9
:1009D2003DBEF5EF04F03D5009E1020E3C5CD8A0AB
:1009E200F5EF04F0F7EF04F028EF05F0345035107E
:1009F20036103710381039103A103B10D8A404EFD3
:100A020005F006EF05F050EF04F031BE13EF05F0EC
:100A1200315006E13004D8B011EF05F013EF05F0C4
:100A220050EF04F033BE1EEF05F0335008E13204FC
:100A3200D8A01EEF05F020EF05F028EF05F0000129
:100A420076B326EF05F028EF05F050EF04F0000131
:100A520076A92EEF05F030EF05F046EF05F03C06E3
:100A6200D8A03D067C0E3C24D96E000E3D20DA6EE5
:100A720027C0DFFF3C06D8A03D067C0E3C24D96E81
:100A8200000E3D20DA6E300EDF6E1DC012F01EC069
:100A920013F07C0E3C24146E000E3D20156E32C005
:100AA20016F033C017F0E5EC0AF012C01DF013C0C7
:100AB2001EF012001D6E020E1A6E000E1C6E000E4B
:100AC200196E70EF05F0120E1C6E100E196E85EF86
:100AD20005F0770E1C6E300E196E85EF05F01D5075
:100AE200156E166A1650000AD8B47AEF05F085EF33
:100AF20005F015500C0AD8B46AEF05F0020AD8B412
:100B020064EF05F085EF05F01C508009026E020EBD
:100B1200A5EC0EF0800E0B6E040E05EC12F0800EAA
:100B22000B6E0A0E2CEC12F0000E026E010EA5ECFA
:100B32000EF0000E1F6E000E1E6EADEF05F01E5081
:100B42000E24D96E1F500F20DA6EDF50026E090E8E
:100B5200A5EC0EF01E4A1F2A1050156E166A15508B
:100B62001E5C16501F58D8A0B9EF05F0BBEF05F078
:100B7200A0EF05F01DC002F0010EA5EC0EF00C0E68
:100B82001D18D8A4C7EF05F0C9EF05F0CEEF05F0A8
:100B9200800E0B6E0D0E2CEC12F01E681F68040EF8
:100BA20048EC0BF0206E1E06D8A01F061E501F1028
:100BB200D8B4DEEF05F0E0EF05F0F1EF05F020B07C
:100BC200E5EF05F0E7EF05F0F1EF05F0205019141D
:100BD2000009D8B4EFEF05F0F1EF05F0D0EF05F022
:100BE200800E0B6E0D0E05EC12F01E501F10D8B4C5
:100BF200FDEF05F0FFEF05F0A0EF06F0060E48EC62
:100C02000BF0156E1B0E1516D8A40AEF06F00CEFAA
:100C120006F09EEF06F0000E1A6E20501C14156EA0
:100C220015A016EF06F018EF06F01AEF06F0010E07
:100C32001A6E0C0E1D18D8A421EF06F023EF06F051
:100C4200A0EF06F00A0E48EC0BF0206E0C0E48ECFA
:100C52000BF0070B1B6E1B50D8B432EF06F034EFCB
:100C620006F056EF06F0F80E156EFF0E166E1B50CC
:100C720020C017F0186AD89017361836D890173651
:100C82001836D890173618361726000E1822155027
:100C920017261650182213C0D9FF14C0DAFF17C046
:100CA200DEFF18C0DDFF60EF06F02050080D13C014
:100CB200D9FF14C0DAFFF3CFDEFFF4CFDDFF2050FF
:100CC200D8A466EF06F068EF06F06AEF06F0010EB0
:100CD200206E100E206470EF06F072EF06F074EFD3
:100CE20006F0100E206E000E1F6E000E1E6E86EFB6
:100CF20006F01E501124D96E1F501220DA6E090E12
:100D020048EC0BF0DF6E1E4A1F2A2050156E166A41
:100D120015501E5C16501F58D8A092EF06F094EFA3
:100D220006F07AEF06F01E501124D96E1F501220E1
:100D3200DA6E000EDF6EA0EF06F0020E1A6E1A5087
:100D420012001D6E020E1A6E000E1C6E000E196E3F
:100D5200B7EF06F0120E1C6E100E196ECCEF06F0F5
:100D6200770E1C6E300E196ECCEF06F01D50156E0C
:100D7200166A1650000AD8B4C1EF06F0CCEF06F09E
:100D820015500C0AD8B4B1EF06F0020AD8B4ABEF92
:100D920006F0CCEF06F01C508009026E020EEFEC5A
:100DA2000EF0800E0B6E040E12EC12F0800E0B6E23
:100DB2000A0E38EC12F0000E026E010EEFEC0EF08D
:100DC200000E1F6E000E1E6EF4EF06F01E500E2473
:100DD200D96E1F500F20DA6EDF50026E090EEFEC53
:100DE2000EF01E4A1F2A1050156E166A15501E5C10
:100DF20016501F58D8A000EF07F002EF07F0E7EFF8
:100E020006F01DC002F0010EEFEC0EF00C0E1D18E4
:100E1200D8A40EEF07F010EF07F015EF07F0800EE1
:100E22000B6E0D0E38EC12F01E681F68040EA4EC57
:100E32000BF0206E1E06D8A01F061E501F10D8B43D
:100E420025EF07F027EF07F038EF07F020B02CEF7F
:100E520007F02EEF07F038EF07F0205019140009C1
:100E6200D8B436EF07F038EF07F017EF07F0800E2F
:100E72000B6E0D0E12EC12F01E501F10D8B444EF80
:100E820007F046EF07F0E7EF07F0060EA4EC0BF0D1
:100E9200156E1B0E1516D8A451EF07F053EF07F08D
:100EA200E5EF07F0000E1A6E20501C14156E15A007
:100EB2005DEF07F05FEF07F061EF07F0010E1A6ECA
:100EC2000C0E1D18D8A468EF07F06AEF07F0E7EFE1
:100ED20007F00A0EA4EC0BF0206E0C0EA4EC0BF043
:100EE200070B1B6E1B50D8B479EF07F07BEF07F0AE
:100EF2009DEF07F0F80E156EFF0E166E1B5020C008
:100F020017F0186AD89017361836D8901736183650
:100F1200D890173618361726000E182215501726A5
:100F22001650182213C0D9FF14C0DAFF17C0DEFF13
:100F320018C0DDFFA7EF07F02050080D13C0D9FF3E
:100F420014C0DAFFF3CFDEFFF4CFDDFF2050D8A4C8
:100F5200ADEF07F0AFEF07F0B1EF07F0010E206E33
:100F6200100E2064B7EF07F0B9EF07F0BBEF07F000
:100F7200100E206E000E1F6E000E1E6ECDEF07F0DB
:100F82001E501124D96E1F501220DA6E090EA4ECE5
:100F92000BF0DF6E1E4A1F2A2050156E166A15507E
:100FA2001E5C16501F58D8A0D9EF07F0DBEF07F0F0
:100FB200C1EF07F01E501124D96E1F501220DA6EB5
:100FC200000EDF6EE7EF07F0020E1A6E1A501200E3
:100FD200A00E0F6E860E106E010E116E000E126EB6
:100FE20007EC10F04E0E09EC0AF061EC0DF0000E69
:100FF200036E810E026E000E056E000E046E000E70
:10100200076E000E066E000E096E010E086EC5EC2C
:1010120010F0120E0001E26F200EE16F0F0EE82EAB
:10102200FED7E12FFCD7E22FFAD700D0010E086ECF
:10103200010E39EC0FF0010E066E080E076EB4ECCD
:101042000CF0230E0001E26F3F0EE16F220EE82E3C
:10105200FED7E12FFCD7E22FFAD700F0010E5CECAD
:1010620010F0CD0E276E000E286E5EEC12F0AC0E64
:10107200296E000E2A6EE8EC11F0AC0E216E000E05
:10108200226E5AEC0CF000017B6FCC0E276E000E24
:10109200286E56EC12F09C0E296E000E2A6ED9ECC8
:1010A20011F09C0E216E000E226E00EC0CF000017D
:1010B2007A6FAC0E026E000E036E39EC11F0020470
:1010C2000310D8B467EF08F069EF08F078EF08F082
:1010D2009C0E026E000E036E39EC11F00204031036
:1010E200D8A476EF08F078EF08F086EF08F0010E4A
:1010F2005CEC10F0010E086E010E39EC0FF0090ED7
:10110200066E080E076EB4EC0CF0020E086E010EAD
:1011120039EC0FF000017B51D8A492EF08F094EF64
:1011220008F0D3EF08F0000EE46F000EE36FBC0E80
:10113200CE6F000ECF6F0D0ED06F080ED16FAC0EBA
:10114200E325D96E000EE421DA6EDF50E16FE15142
:10115200D26FD36B33EC10F0BC0E066E000E076E2E
:10116200B4EC0CF00001E34BE42BE4BFC2EF08F057
:10117200E45109E1050EE35DD8A0C2EF08F0C4EF27
:1011820008F098EF08F0230E0001E26F3F0EE16FC6
:10119200220EE82EFED7E12FFCD7E22FFAD700F07D
:1011A20032EF08F07A51D8A4D9EF08F0DBEF08F05B
:1011B2000DEF09F0000EE66F000EE56FBC0ECE6F6C
:1011C200000ECF6F0D0ED06F080ED16F9C0EE5256D
:1011D200D96E000EE621DA6EDF50E16FE151D26F77
:1011E200D36B33EC10F0BC0E066E000E076EB4EC3F
:1011F2000CF00001E54BE62BE6BF09EF09F0E651E2
:1012020009E1050EE55DD8A009EF09F00BEF09F041
:10121200DFEF08F0C4EF08F0020E0001E26FB70E34
:10122200E16F4C0EE82EFED7E12FFCD7E22FFAD762
:1012320000F08A9E0EEC0DF032EF08F01DEF00F088
:1012420042C0D9FF43C0DAFFDECFF6FFDDCFF7FFA2
:101252000800F550250AD8A431EF09F033EF09F060
:10126200EDEF09F042C0D9FF43C0DAFFDE2A000EDB
:10127200DD22000E0001736F000E726F72C076F0F5
:1012820073C077F07469756942C0D9FF43C0DAFF51
:10129200DECFF6FFDDCFF7FF0800F550780AD8B4AD
:1012A20055EF09F057EF09F069EF09F042C0D9FF95
:1012B20043C0DAFFDECFF6FFDDCFF7FF0800F550BF
:1012C200580AD8A467EF09F069EF09F0B7EF09F0FF
:1012D20042C0D9FF43C0DAFFDECFF6FFDDCFF7FF12
:1012E2000800F5CF52F042C0D9FF43C0DAFFDE2A30
:1012F200000EDD2244C0D9FF45C0DAFFDFCF46F041
:10130200020EDE26DFCF47F0000EDD2246C0D9FFF7
:1013120047C0DAFFDECF48F0DDCF49F048C04AF0DF
:1013220049C04BF04C6A4D6A4E6A4F6A506A516A24
:1013320040C01DF041C01EF04AC01FF04BC020F05B
:101342004CC021F04DC022F04EC023F04FC024F01B
:1013520050C025F051C026F052C027F009EC04F02D
:101362001DC040F01EC041F008EF0AF042C0D9FF94
:1013720043C0DAFFDECFF6FFDDCFF7FF0800F550FE
:10138200250AD8A4C7EF09F0C9EF09F0E0EF09F088
:1013920042C0D9FF43C0DAFFDE2A000EDD22000E72
:1013A200036E250E026E40C004F041C005F080ECD1
:1013B2000AF0000E416E010E406E08EF0AF042C0C4
:1013C200D9FF43C0DAFFDE2A000EDD22000E416E95
:1013D200000E406E08EF0AF042C0D9FF43C0DAFFA8
:1013E200DECFF6FFDDCFF7FF0800F550026E036A8D
:1013F20040C004F041C005F080EC0AF042C0D9FFC1
:1014020043C0DAFFDE2A000EDD22DAEF09F0120015
:101412000A6E0AC0E7F0000EF7EC11F0020E096E38
:101422005F0E086EA30EE82EFED7082EFCD7092EFB
:10143200FAD700F0030E5CEC10F02C0E086ED40EFE
:10144200E82EFED7082EFCD7030E5CEC10F02C0E13
:10145200086ED40EE82EFED7082EFCD7030E5CECE5
:1014620010F02C0E086ED40EE82EFED7082EFCD7F4
:10147200020E5CEC10F02C0E086ED40EE82EFED795
:10148200082EFCD7280E5CEC10F0020E096EB70E87
:10149200086E4C0EE82EFED7082EFCD7092EFAD77E
:1014A20000D00C0E5CEC10F0020E096EB70E086E46
:1014B2004C0EE82EFED7082EFCD7092EFAD700D004
:1014C200010E5CEC10F0020E096EB70E086E4C0EA7
:1014D200E82EFED7082EFCD7092EFAD700D0060E2A
:1014E2005CEC10F0020E096EB70E086E4C0EE82E80
:1014F200FED7082EFCD7092EFAD700D012000450CE
:101502000510D8B487EF0AF089EF0AF092EF0AF0DB
:1015120004500510D8A490EF0AF092EF0AF097EF6A
:101522000AF0025072EC12F0E4EF0AF020EE09F039
:101532000450D9260550DA22DE50DE10D8B4A4EFCA
:101542000AF0A6EF0AF0C1EF0AF020EE09F004500B
:10155200D9260550DA2210EE03F00450E126055098
:10156200E222DE50E65CE650800A0A6EDE50800A15
:101572000A58D8B0BFEF0AF0C1EF0AF0E4EF0AF060
:1015820020EE03F00450D9260550DA22DECF06F011
:10159200DDCF07F004C0D9FF05C0DAFFDECF08F0C7
:1015A200DDCF09F006500824D96E07500920DA6E03
:1015B20002C0DFFF20EE03F00450D9260550DA22E4
:1015C200DE2A000EDD221200000176A1EBEF0AF006
:1015D200EDEF0AF0F7EF0AF014C00BF015C00CF0B3
:1015E20012C00DF013C00EF0A3EC10F017BEFCEF0A
:1015F2000AF0FEEF0AF004EF0BF016C01BF017C062
:101602001CF008EF0BF0000E1C6E000E1B6E000E9D
:101612001A6E000E196E1AEF0BF0000E036E200EFA
:10162200026E12C004F013C005F080EC0AF0194AF1
:101632001A2A1B50195C1A50800A186E1C50800A14
:101642001858D8A027EF0BF029EF0BF00EEF0BF094
:10165200000176B12FEF0BF031EF0BF03BEF0BF007
:1016620014C00BF015C00CF012C00DF013C00EF038
:10167200A3EC10F014C002F015C003F039EC11F025
:101682001B500224126E1C500320136E1200046EB3
:10169200000E086E000E076E8C928992045004248C
:1016A2007E0B026E036A800E0210056E0350066EF8
:1016B200000E0A6E080E096E05BE62EF0BF066EFB1
:1016C2000BF0026A022A67EF0BF0026A0246024638
:1016D2008C500218FB0B02188C6E8C82D890053647
:1016E20006368C920906D8A00A0609500A10D8A418
:1016F2007DEF0BF07FEF0BF05DEF0BF0000E0A6E4B
:10170200080E096E8C82D8900736083683B68CEFA5
:101712000BF090EF0BF0026A022A91EF0BF0026AD3
:10172200025007128C920906D8A00A0609500A1024
:10173200D8A49EEF0BF0A0EF0BF083EF0BF08982A1
:101742008C8207501200046E000E086E000E076EA7
:101752008C928990045004247E0B026E036A800EE0
:101762000210056E0350066E000E0A6E080E096E18
:1017720005BEBEEF0BF0C2EF0BF0026A022AC3EF06
:101782000BF0026A024602468C500218FB0B02184A
:101792008C6E8C82D890053606368C920906D8A0BB
:1017A2000A0609500A10D8A4D9EF0BF0DBEF0BF0B0
:1017B200B9EF0BF0000E0A6E080E096E8C82D890FB
:1017C2000736083683B6E8EF0BF0ECEF0BF0026A4F
:1017D200022AEDEF0BF0026A025007128C92090600
:1017E200D8A00A0609500A10D8A4FAEF0BF0FCEFB1
:1017F2000BF0DFEF0BF089808C8207501200000E95
:10180200246E000E026E0D0EA5EC0EF021C0D9FF63
:1018120022C0DAFF930EDF6E20EE01F02150D926AE
:101822002250DA22200EDF6E080E0B6E080E05EC37
:1018320012F021C00EF022C00FF0020E106E21C075
:1018420011F022C012F0250E136E000E146E0C0E53
:101852005BEC05F0276E2750D8A432EF0CF034EF82
:101862000CF058EF0CF0000E286E28502124D96E8F
:10187200000E2220DA6EDF50241A282A040E286471
:1018820045EF0CF047EF0CF036EF0CF020EE05F0D0
:101892002150D9262250DA222450DE18D8B454EF2F
:1018A2000CF056EF0CF058EF0CF0020E276E27509A
:1018B2001200000E246E000E026E0D0EEFEC0EF002
:1018C20021C0D9FF22C0DAFF930EDF6E20EE01F0B5
:1018D2002150D9262250DA22200EDF6E080E0B6E1E
:1018E200080E12EC12F021C00EF022C00FF0020E10
:1018F200106E21C011F022C012F0250E136E000EE0
:10190200146E0C0EA2EC06F0276E2750D8A48CEFB2
:101912000CF08EEF0CF0B2EF0CF0000E286E285097
:101922002124D96E000E2220DA6EDF50241A282AD2
:10193200040E28649FEF0CF0A1EF0CF090EF0CF076
:1019420020EE05F02150D9262250DA222450DE184A
:10195200D8B4AEEF0CF0B0EF0CF0B2EF0CF0020E18
:10196200276E27501200000E0B6E5B80EFEF0CF01B
:101972000B500624086E000E0720096E08C0F6FF01
:1019820009C0F7FFF86A070EF76403D00800F550A4
:1019920005D0F6CFE1FFF7CFE2FFE750F00B54ECB2
:1019A20011F00B500624086E000E0720096E08C0C5
:1019B200F6FF09C0F7FFF86A070EF76403D00800C4
:1019C200F55005D0F6CFE1FFF7CFE2FFE7500A6E00
:1019D2000A38F00BF00B54EC11F00B2A0B500624D2
:1019E200086E000E0720096E08C0F6FF09C0F7FF57
:1019F200F86A070EF76403D00800F55005D0F6CF59
:101A0200E1FFF7CFE2FFE7500009D8A40BEF0DF09A
:101A12000DEF0DF0B9EF0CF01200500E216E000E1A
:101A2200226E210E0E6E000E0F6E020E106E230E2F
:101A3200116E000E126E55EC0EF0210E0E6E000E9F
:101A42000F6E020E106E230E116E000E126E05EC5A
:101A52000EF0800E0B6E080E12EC12F0800E0B6E62
:101A6200080E05EC12F0210E0E6E000E0F6E040E23
:101A7200106E210E116E000E126E250E136E000EE8
:101A8200146E0C0EA2EC06F0210E0E6E000E0F6EFE
:101A9200040E106E210E116E000E126E250E136EC4
:101AA200000E146E0C0E5BEC05F0080E0B6E080EA9
:101AB20012EC12F0080E0B6E080E05EC12F012007A
:101AC2009594959292909292958695988C928C94F8
:101AD200898089828C889CEC11F08D0E026E2A0E10
:101AE200EFEC0EF03E0E026E2B0EEFEC0EF01E0E21
:101AF200026E2D0EEFEC0EF0000E026E2C0EEFECCD
:101B02000EF0400E026E150EEFEC0EF03D0E026E60
:101B1200110EEFEC0EF06CEC12F04DEC12F08D0E9B
:101B2200026E2A0EA5EC0EF03E0E026E2B0EA5ECF6
:101B32000EF01E0E026E2D0EA5EC0EF0000E026EC1
:101B42002C0EA5EC0EF0400E026E150EA5EC0EF05A
:101B52003D0E026E110EA5EC0EF066EC12F044EC96
:101B620012F01200000E0A6E000E0B6E000E0C6ECA
:101B7200000E0D6E0650071008100910D8B4C4EFFD
:101B82000DF0C6EF0DF0FCEF0DF0010E0E6ED0EF72
:101B92000DF0D89006360736083609360E2A09AEF9
:101BA200D5EF0DF0D7EF0DF0CAEF0DF0D8900A3651
:101BB2000B360C360D360650025C0750035808509F
:101BC200045809500558D8A0E9EF0DF0EBEF0DF0DD
:101BD200F4EF0DF00650025E0750035A0850045A03
:101BE2000950055A0A80D890093208320732063263
:101BF2000E2ED7EF0DF00AC002F00BC003F00CC09E
:101C020004F00DC005F01200040E0B6E050E05EC7B
:101C120012F0800E0B6E0A0E2CEC12F0000E146EF7
:101C22001FEF0EF00EC0D9FF0FC0DAFFDF50026EB9
:101C3200090EA5EC0EF00E4A0F2A142A1050145C5D
:101C4200D8A026EF0EF028EF0EF013EF0EF0030EE1
:101C5200026E010EA5EC0EF01468050E48EC0BF0B6
:101C6200136E14061450D8B439EF0EF03BEF0EF099
:101C720042EF0EF013A440EF0EF042EF0EF02EEF03
:101C82000EF0220E48EC0BF011C0D9FF12C0DAFFA1
:101C9200DF6E20EE01F01150D9261250DA22210E09
:101CA20048EC0BF0DF6E1200040E0B6E050E12EC08
:101CB20012F0800E0B6E0A0E38EC12F0000E146E4B
:101CC2006FEF0EF00EC0D9FF0FC0DAFFDF50026EC9
:101CD200090EEFEC0EF00E4A0F2A142A1050145C73
:101CE200D8A076EF0EF078EF0EF063EF0EF0030E51
:101CF200026E010EEFEC0EF01468050EA4EC0BF070
:101D0200136E14061450D8B489EF0EF08BEF0EF058
:101D120092EF0EF013A490EF0EF092EF0EF07EEF22
:101D22000EF0220EA4EC0BF011C0D9FF12C0DAFFA4
:101D3200DF6E20EE01F01150D9261250DA22210E68
:101D4200A4EC0BF0DF6E1200046E8C9289920450A8
:101D520004247E0B056E080E066E05BEB3EF0EF070
:101D6200B7EF0EF0036A032AB8EF0EF0036A0346D8
:101D720003468C500318FB0B03188C6E8C82D89090
:101D820005368C9206060650D8A4CAEF0EF0CCEFA8
:101D92000EF0AEEF0EF0080E066E02BED3EF0EF09E
:101DA200D7EF0EF0036A032AD8EF0EF0036A034658
:101DB20003468C500318FB0B03188C6E8C82D89050
:101DC20002368C9206060650D8A4EAEF0EF0ECEF2B
:101DD2000EF0CEEF0EF089828C821200046E8C928D
:101DE2008990045004247E0B056E080E066E05BE13
:101DF200FDEF0EF001EF0FF0036A032A02EF0FF07E
:101E0200036A034603468C500318FB0B03188C6EBF
:101E12008C82D89005368C9206060650D8A414EF10
:101E22000FF016EF0FF0F8EF0EF0080E066E02BE7E
:101E32001DEF0FF021EF0FF0036A032A22EF0FF0DC
:101E4200036A034603468C500318FB0B03188C6E7F
:101E52008C82D89002368C9206060650D8A434EFB3
:101E62000FF036EF0FF018EF0FF089808C8212001E
:101E72000B6E54EF0FF00B50BF0F5CEC10F06DEFD8
:101E82000FF00B50930F5CEC10F06DEF0FF00B5056
:101E9200D30F5CEC10F06DEF0FF00B507F0F5CEC8A
:101EA20010F06DEF0FF00850096E0A6A0A50000A2E
:101EB200D8B45EEF0FF04EEF0FF00950020AD8B41B
:101EC2003CEF0FF0010AD8B442EF0FF0070AD8B482
:101ED20048EF0FF04EEF0FF01200236E070E026E66
:101EE2000D0EA5EC0EF021C0D9FF22C0DAFF23C0EF
:101EF200DFFF21C00EF022C00FF0010E106E21C0D4
:101F020011F022C012F0250E136E000E146E0C0E8C
:101F12005BEC05F0246E2450D8A492EF0FF094EFFE
:101F22000FF09EEF0FF0100E25182610D8B49CEF7C
:101F32000FF09EEF0FF0A0EF0FF0020E246E245070
:101F42001200236E070E026E0D0EEFEC0EF021C092
:101F5200D9FF22C0DAFF23C0DFFF21C00EF022C06A
:101F62000FF0010E106E21C011F022C012F0250EEA
:101F7200136E000E146E0C0EA2EC06F0246E2450AA
:101F8200D8A4C6EF0FF0C8EF0FF0D2EF0FF0100E8B
:101F920025182610D8B4D0EF0FF0D2EF0FF0D4EFFF
:101FA2000FF0020E246E2450120055C059F056C094
:101FB2005AF0000E0001716F000E706FF4EF0FF017
:101FC20053C040F054C041F0590E426E000E436EB1
:101FD20057C044F058C045F021EC09F040500001D0
:101FE20070274150712359C0F6FF5AC0F7FF08000D
:101FF200F5500009D8A400EF10F002EF10F0E1EF65
:102002000FF070C053F071C054F01200280EC66E6B
:10201200000EC56EC00E026EFC0E036E9B0E046EA9
:10202200010E056E0FC013F010C014F011C015F0B0
:1020320012C016F0020ED890133614361536163624
:10204200E82E1CEF10F013C006F014C007F015C004
:1020520008F016C009F0B3EC0DF00204C86E000ED1
:10206200C76E1200D20E0001D46F000ED56FCEC023
:10207200D6F0CFC0D7F0000EDA6F000ED96F000E87
:10208200E06F000EDF6FD60E536E000E546ED0C09E
:1020920055F0D1C056F0D40E576E000E586ED6ECE5
:1020A2000FF00001D951CE25D96EDA51CF21DA6E67
:1020B200000EDF6E1200076E5B900750F00B54ECBF
:1020C20011F00738F00BF00B54EC11F00704D8B400
:1020D2006DEF10F06FEF10F078EF10F0020E0718AE
:1020E200D8A476EF10F078EF10F080EF10F0120E17
:1020F200066E870EE82EFED7062EFCD700F01200E1
:102102009F0E0A6EFF0E0B6E08C00CF009C00DF098
:102112000A500C260B500D220D5007E11A0E0C5CD2
:10212200D8B096EF10F098EF10F09EEF10F05F0E1F
:102132000814086E096AA2EF10F008C008F009C07E
:1021420009F01200000E116E000E106EB4EF10F0C6
:102152000FC002F0036A0DC004F00EC005F080EC5F
:102162000AF0104A112A10500B24D96E11500C207B
:10217200DA6EDF500F6E0F50D8A4C2EF10F0C4EF2A
:1021820010F0A9EF10F01200948E948C0350B06EF0
:102192000250010DF3500008AF6EAB88AB8E08B051
:1021A20002D0B89601D0B88604B002D0AC9801D063
:1021B200AC8806B002D0AC9401D0AC84AC8A9F8AC1
:1021C2009D8A12009F0E046EFF0E056E200E0210F5
:1021D200066E000E0310076E0450062605500722F5
:1021E20007500AE11A0E065CD8A0FAEF10F0FDEFD4
:1021F20010F0010EFEEF10F0000E026E036A1200E4
:102202009F0E046EFF0E056E02C006F003C007F0BB
:10221200045006260550072207500AE11A0E065CF2
:10222200D8A016EF11F019EF11F0010E1AEF11F00C
:10223200000E026E036A1200BF0E046EFF0E056EE0
:1022420002C006F003C007F004500626055007221C
:1022520007500AE11A0E065CD8A032EF11F035EFF2
:1022620011F0010E36EF11F0000E026E036A120039
:1022720002C004F003C005F041EF11F0024A032A44
:1022820002C0D9FF03C0DAFFDF50D8A44BEF11F030
:102292004DEF11F03FEF11F00450025C026E055059
:1022A2000358036E1200056E000E5BB0010E05129C
:1022B2000550FB0BF7EC11F000D000D000D0055018
:1022C2000409F7EC11F000D000D000D00550FB0B50
:1022D200F7EC11F0E10EE82EFED71200E60EF66ED4
:1022E200240EF76E000EF86E0900F5CF5CF000EEDA
:1022F20060F06E0EEE6AE806FDE15B6A5D905D924B
:10230200000EF86E0001E9EF07F0036EC7B48CEF20
:1023120011F08EEF11F087EF11F0C5CF02F01F0E12
:102322000216D8A497EF11F099EF11F087EF11F090
:1023320003C0C9FF12008C8800D000D000D08C9856
:1023420000D000D000D08C8800D000D000D00F0E7A
:10235200026E010EEFEC0EF000D000D000D01200A1
:10236200C7B4B6EF11F0B8EF11F0B1EF11F0C5CF6D
:1023720002F01F0E0216D8A4C1EF11F0C3EF11F044
:10238200B1EF11F0C5841200C7B4CAEF11F0CCEF5F
:1023920011F0C5EF11F0C5CF02F01F0E0216D8A43E
:1023A200D5EF11F0D7EF11F0C5EF11F0C580120093
:1023B20029C021F02AC022F000EC0CF020EE05F03A
:1023C2002950D9262A50DA22000EDF6E120029C0C7
:1023D20021F02AC022F05AEC0CF020EE05F0295030
:1023E200D9262A50DA22000EDF6E1200046EC5ECE6
:1023F20011F00001E75186EC11F004505C1086ECFC
:1024020011F0B1EC11F012000D6E0D5048EC0BF012
:102412000C6E0B50FF0A0C14026E0D50A5EC0EF060
:1024220012000D6E0D50A4EC0BF00C6E0B50FF0A57
:102432000C14026E0D50EFEC0EF012000600F29E2C
:102442009EAA26EF12F028EF12F029EF12F09E9AC0
:10245200F28E5D9211000D6E0D5048EC0BF00C6E79
:102462000C500B10026E0D50A5EC0EF012000D6E0A
:102472000D50A4EC0BF00C6E0C500B10026E0D50B4
:10248200EFEC0EF01200140E48EC0BF0030E0B6E84
:10249200140E2CEC12F01200140EA4EC0BF0030E2E
:1024A2000B6E140E38EC12F0120027C021F028C077
:1024B20022F0260E6EEC0FF0120027C021F028C089
:1024C20022F0260EA2EC0FF01200030E0B6E140E79
:1024D20005EC12F01200030E0B6E140E12EC12F049
:0524E2001200120008C9
:020000040020DA
:08000000FFFFFFFFFFFFFFFF00
:020000040030CA
:0E000000000C1E1EFF8181FF0FC00FE00F409D
:00000001FF
